:100000000010001049000000410000004300000003
:1000100000000000000000000000000000000000E0
:1000200000000000000000000000000000000000D0
:10003000000000000000000045000000CD010000AD
:10004000FEE7FEE7FEE7FEE700230A4A0A499A18A0
:100050008A4204D20949C95804331160F5E7084BB4
:10006000084A934202D2002204C3F9E700F0B6F82E
:10007000FEE7C046800200108002001074090000F4
:100080008002001030030010FEE7FEE7FEE7C046E6
:10009000034B19681A68521A8242FBD37047C04654
:1000A0008002001010B5031C013A04D40C78013111
:1000B0001C700133F8E710BD10B5064CFA20236818
:1000C0009840FFF7E5FF23680F2B01DC0133236025
:1000D00010BDC046C002001070B5061C01200D1CEA
:1000E0000024404280B2AC4205DA315D013400F0B8
:1000F000BFF9A4B2F6E770BD10B5064C8020618B45
:1001000040010901FFF7E8FFA38B181A4342584149
:1001100010BDC046C4020010F8B58C0A8E09071C39
:100120000D1C201C211C00F055FB311C301C00F064
:1001300039FB211C201C00F04DFB381C291C4022DF
:1001400000F05CFBF8BD000038B5031C60204042A5
:100150001043C0B2CAB2191C00F006FB002000F028
:1001600015FB0B4B1C681D1C00F024FA002806D15F
:100170002B681B1BF92BF7D90120404207E0054BE8
:100180009B78002BF4D0044B18884342584138BD6B
:1001900080020010E40200102C03001010B50A4C7D
:1001A0000123201C20212360FFF796FF002809D09F
:1001B0001E21201CFFF790FFFC21E0830901201C79
:1001C000FFF7AAFF10BDC046C4020010024B1A6818
:1001D00001321A607047C04680020010814B82498C
:1001E000DA6FF0B50A43DA67804B814A814CDA60F6
:1001F000814AA5B01A61814B814A00265A60216A62
:10020000C0220902090A12060A43226207229E60DE
:1002100003A81A6000F00AFB7A4D281C00F01AFBB4
:100220001420FFF735FF0196774DFC2109012022AC
:10023000281CFFF737FF281C2021FFF74DFF2C1C3F
:10024000002808D1D4220120022100F02BF96F4BA5
:1002500000221A6021E000230133212BF2D0E218A2
:10026000013A00211170F7E769498A78142A0FD101
:1002700009AE0331301CFFF715FFB3780AA92371CB
:10028000F3781022381C6371FFF70CFFFFF786FF2D
:100290002279002A1ED1FFF70FFF80230EAE9B00AC
:1002A00033802379271CB370637908371021381CF9
:1002B000F370FFF711FFB0806846524910223E30BC
:1002C000FFF7F0FE301C16214022FFF73DFF00280B
:1002D000CADCDDE760790028DDD0022100F0E2F819
:1002E0004A4B00221A60802305A89B000380238BC1
:1002F00008214380638B00228380A38BC380FFF798
:1003000023FF002815DD42498A78082A11D107AC5D
:100310000331201CFFF7C6FE63882B83A3886B8301
:10032000E388AB83FFF73AFFFFF7E6FE002817D01C
:1003300006E0FFF7C1FEFFF7DFFE0028D3D0F3E7AA
:10034000FFF7DAFE002842D1019B0F2018406423FA
:100350008340181CFFF79CFE019A0132019263E76B
:100360006D8B041C2D013F35AD11AC42E8DA274BF3
:10037000261C002240361A60B601234B04A81B8BB2
:100380000421002203804480FFF7DEFE002802DC07
:10039000FFF792FEF1E71E4B9B78422BF8D100232A
:1003A0001B492D2058430531CA1A1778013B784064
:1003B000C0B210701A1C4032F2D1402214A8FFF7CC
:1003C00071FE14A8311CFFF7A7FE0134CDE7094ADE
:1003D00080235B0193600F4B1B689847002025B07A
:1003E000F0BDC046048004408000040000C000400E
:1003F000FFFFFF0C00ED00E00E0F0DFF10E000E02E
:10040000DF2E0000B0020010C4020010C002001075
:10041000E402001004100000F1231B051843044BF4
:1004200098619A68D107FCD5014B586980B2704732
:100430000080054008B5A0208001FFF7EDFF5023A4
:10044000184203D00020FFF7E7FFF4E708BD10B51E
:10045000041C80204000FFF7DFFF1C239843044367
:1004600081231B02E0B21843FFF7D6FF10BD000046
:1004700030B50F22041C0A4B14406400E45A0009F2
:100480004440081C10404000C55A09096C402240F5
:1004900049005200D25ACB5A20095840504030BD32
:1004A00028090000F8B5171C364A0D1C3649107093
:1004B0005770CC6F061C80200001344B2043C86766
:1004C0005868012188435860586808435860304B89
:1004D0000320586200205860042018601868014307
:1004E00019602C48FFF798FFBC208001FFF794FFAC
:1004F000C0B2AA28F5D12848FFF78EFFBC208001A2
:10050000FFF78AFFC0B25528F5D1244C2034237858
:10051000002B08D080206278034318021043023475
:10052000FFF77AFFF3E7B02000023843FFF774FFCC
:10053000022D03D0032D03D1194B02E0194B00E02B
:10054000194B1A481A4945435B19980000F09CF969
:100550008401201487231B02C0B21843FFF75CFFFD
:10056000201288231B02C0B21843FFF755FF8920D1
:10057000E4B200022043FFF74FFF024A0423301C7D
:100580009370F8BD84020010048004400080044091
:1005900000800540AAAF000055AF00002809000008
:1005A00000E9A435008F42338047A11900093D00BE
:1005B000093D000070B5474CA378251C042B0FD1D2
:1005C000454B0025617845489D70E570FFF750FF69
:1005D000434B18800523A370FFF72CFF10205EE02B
:1005E000A0208001FFF718FFA378052B39D15023F5
:1005F00018426DD00020FFF70FFFE378C1B2364CF0
:10060000002B05D1EB786A78E2540133DBB2EB7052
:10061000EB78334EE1540133DBB2EB703088FFF7F7
:1006200027FF3080A278EB7804329A4202DBEB7825
:10063000462B4DD90420A870FFF709FFA378422B61
:1006400001D901233380637801205A0641D52B78E4
:100650001F2B3ED060781F221040C01A43425841E1
:1006600037E0030634D4A3785BB2002B10DA1A4BC0
:100670001B4D9978A2780331501CC0B28A18A07023
:10068000D2B29C5C2888211CFFF7F2FE28801AE079
:10069000A378032B06D102071AD50420A070FFF718
:1006A000D6FE15E0A3785A1CD2B25BB2A270002B22
:1006B00006D0AA24012B06D1094B1C88240A02E08B
:1006C000074B1C88E4B2802000022043FFF7A4FE01
:1006D000002070BD84020010E4020010FFFF000043
:1006E0002C03001008B5074B00209A78052A07D183
:1006F000DA78824204D104209870FFF7A8FE012026
:1007000008BDC0468402001070B5134D0023AA70C6
:10071000934205DACE5CEC1CE41826700133F7E74F
:100720000E4C430604D41F2398432378C018C0B24C
:10073000687061780A48FFF79BFE0A4B1880AA7818
:1007400002235B429B1ADBB2A370FFF773FE0C20FF
:10075000FFF77DFE70BDC046E40200108402001069
:10076000FFFF00002C03001070B5061C0D1C141CAC
:10077000FFF7B8FF002802D1FFF71CFFF8E7301C95
:10078000291C221CFFF7C0FF70BD000008B5044BF8
:100790009B785BB2032B02DCFFF70CFFF7E708BD89
:1007A0008402001010B5084C3B232360074B6060A7
:1007B000A160E36072B6211C1431201C044B9847E1
:1007C00062B6606910BDC04688020010E02E0000CD
:1007D000F11FFF1F10B5074C322323606060A1603A
:1007E00072B6211C1431201C034B984762B6606915
:1007F00010BDC04688020010F11FFF1F10B5084C45
:1008000033232360074B6160A060E260236172B60E
:10081000211C1431201C044B984762B6606910BD3E
:1008200088020010E02E0000F11FFF1F38B5074CB2
:100830003623051C236072B6211C1431201C044B86
:10084000984762B6A3692B60606938BD88020010C2
:10085000F11FFF1F38B50A4C3A23051C236072B6FE
:10086000211C1431201C074B984762B6A3692B60EA
:10087000E36960696B60236AAB60636AEB6038BDF3
:1008800088020010F11FFF1F002934D0012300222D
:1008900010B488422CD301242407A14204D28142FF
:1008A00002D209011B01F8E7E400A14204D281420F
:1008B00002D249005B00F8E7884201D3401A1A438C
:1008C0004C08A04202D3001B5C0822438C08A042C3
:1008D00002D3001B9C082243CC08A04202D3001B79
:1008E000DC082243002803D01B0901D00909E3E7F3
:1008F000101C10BC7047002801D00020C04307B472
:10090000024802A14018029003BDC0461900000031
:100910000029F0D003B5FFF7B9FF0EBC4243891A96
:100920001847C0467047C046000001CC01D80014EB
:1009300001F0003C002801E401A0006C007801B443
:100940000050019C01880044010402000302048A53
:10095000050506C307D9080009000B2019422540E8
:1009600029DC2E882F2D3005370038003C8F3D10B4
:040970006F200000F4
:0400000300000049B0
:00000001FF
