:1000000000100010CB000000C1000000C300000081
:1000100000000000000000000000000000000000E0
:1000200000000000000000000000000000000000D0
:100030000000000000000000C5000000C902000030
:10004000C9000000C900000000000000C900000055
:10005000C9000000C900000000000000000000000E
:10006000C9000000C9000000C9000000C90000006C
:10007000C9000000C900000000000000C900000025
:100080000000000000000000000000000000000070
:100090000000000000000000000000000000000060
:1000A000C9000000C9000000C9000000C90000002C
:1000B000C9000000C9000000C9000000C90000001C
:1000C000FEE7FEE7FEE7FEE7FEE70023094A0A49EE
:1000D0009A188A4204D20949C95804331160F5E7D5
:1000E000074B084A934202D2002204C3F9E700F00A
:1000F000F3F8FEE780020010800200102C0F0000D1
:100100008002001030030010FEE7C046034B196860
:100110001A68521A8242FBD37047C0468002001010
:1001200010B5031C013A04D40C7801311C70013362
:10013000F8E710BD38B5094CFA252368291C994009
:10014000074800F06DFD2368281C9840FFF7DEFF8C
:1001500023680F2B01DC0133236038BDC00200107F
:10016000D40D0000F8B50124071C0E1C00256442C4
:10017000B54207DAA0B2795D00F042FA0135041CFD
:10018000ADB2F5E7211C024800F04AFDA0B2F8BD6F
:100190002A0E000010B5064C8020618B4001090139
:1001A000FFF7E0FFA38B181A4342584110BDC04629
:1001B000C4020010F7B58C0A8E09071C0D1C331CF5
:1001C0002A1C391C00940E4800F02AFD211C201C1A
:1001D00000F056FD311C301C00F03AFD011C0948AE
:1001E00000F01EFD211C201C00F04AFD291C381CBB
:1001F000402200F059FD011C034800F011FDF7BD3D
:10020000DD0D0000020E0000100E000038B5031CCA
:10021000602040421043C0B2CAB2191C00F06CFB0F
:10022000002000F07BFB134B1C681D1C00F08AFAB9
:10023000002809D12B681B1BF92BF7D90E4800F0B9
:10024000EFFC0120404214E00C4A9378002BF1D0DF
:100250000B4B1988002905D019880A4800F0E0FCEA
:10026000002006E09178084852781B8800F0D8FCFE
:10027000012038BD800200101B0E0000E4020010B7
:100280002C030010260E0000340E000010B50C4C9C
:100290000123201C20212360FFF764FF00280DD0DC
:1002A0001E21201CFFF75EFF011CE083054800F0C3
:1002B000B7FCFC21201C0901FFF77CFF10BDC046E4
:1002C000C40200104E0E0000024B1A6801321A6080
:1002D0007047C04680020010984B9949DA6FF0B51C
:1002E0000A43DA67974B984AE1201A60974AA5B00B
:1002F000DA60974A00021A6100F01CFB954B964A9F
:10030000964C5A60216AC0220902090A12060A4361
:100310002262002607229E6091491A60914800F0EF
:100320007FFC03A800F0D8FC03998F4800F078FC0C
:100330008E4D281C00F0E4FC1420FFF7E7FE019628
:100340008B4800F06DFC8B4DFC2109012022281CFC
:10035000FFF7E6FE281C2021FFF704FF2C1C0028D5
:100360000BD1D4220221012000F064F9824800F070
:1003700057FC824B00221A6029E0814800F050FCB3
:1003800000230133212BECD0E218013A0021117037
:10039000F7E77C498A78142A14D109AE0331301C5E
:1003A000FFF7BEFEB3780AA92371F3781022381C38
:1003B0006371FFF7B5FEFFF769FF21796279724833
:1003C00000F02EFC2279002A1ED1FFF7B3FE802315
:1003D0000EAE9B0033802379271CB37063790837F6
:1003E0001021381CF370FFF7BDFEB08068465F49EE
:1003F00010223E30FFF794FE301C16214022FFF7FA
:1004000005FF0028C5DCDDE760790028DDD002218A
:1004100000F010F95D4800F003FC584B00221A6010
:10042000802305A89B000380238B08214380638BD6
:1004300000228380A38BC380FFF7E8FE002818DD2D
:1004400050498A78082A14D107AC0331201CFFF7E1
:1004500067FE63882B83A3886B83E388AB83FFF7F6
:1004600015FF4B4800F0DCFBFFF794FE00281AD084
:1004700006E0FFF75FFEFFF78DFE0028D0D0F0E723
:10048000444800F0CDFBFFF785FE002842D1019BD8
:100490000F20184064238340181CFFF737FE019A91
:1004A000013201924CE76D8B041C2D013F35AD11DB
:1004B000AC42E5DA314B261C002240361A60B60108
:1004C0002C4B04A81B8B0421002203804480FFF7DF
:1004D0009DFE002802DCFFF72DFEF1E7294B9B78FB
:1004E000422BF8D1002327492D2058430531CA1A41
:1004F0001778013B7840C0B210701A1C4032F2D11C
:10050000402214A8FFF70CFE14A8311CFFF752FE7E
:100510000134CDE7204800F083FB104A80235B01C3
:1005200093601E4B1E481C6800F07AFBA0471D48D4
:1005300000F076FB002025B0F0BDC04604800440EA
:100540008000040000C000400400FFFFFFFFFF0622
:10055000090807FF10E000E0DF2E000000ED00E0DA
:10056000001BB700600E00006B0E0000B002001010
:100570007B0E0000C40200107E0E0000C0020010BE
:10058000810E0000E4020010910E0000AA0E00008F
:10059000AD0E0000B00E0000B30E0000041000000D
:1005A000BE0E0000C30E0000F1231B051843044BD0
:1005B00098619A68D107FCD5014B586980B27047A1
:1005C0000080054008B5A0208001FFF7EDFF502313
:1005D000184203D00020FFF7E7FFF4E708BD10B58D
:1005E000041C80204000FFF7DFFF1C2398430443D6
:1005F00081231B02E0B21843FFF7D6FF10BD0000B5
:1006000030B50F22041C0A4B14406400E45A000960
:100610004440081C10404000C55A09096C40224063
:1006200049005200D25ACB5A20095840504030BDA0
:10063000D60E0000F8B5171C364A0D1C364910704E
:100640005770CC6F061C80200001344B2043C867D4
:100650005868012188435860586808435860304BF7
:100660000320586200205860042018601868014375
:1006700019602C48FFF798FFBC208001FFF794FF1A
:10068000C0B2AA28F5D12848FFF78EFFBC20800110
:10069000FFF78AFFC0B25528F5D1244C20342378C7
:1006A000002B08D0802062780343180210430234E4
:1006B000FFF77AFFF3E7B02000023843FFF774FF3B
:1006C000022D03D0032D03D1194B02E0194B00E09A
:1006D000194B1A481A4945435B19980000F02AFB48
:1006E0008401201487231B02C0B21843FFF75CFF6C
:1006F000201288231B02C0B21843FFF755FF892040
:10070000E4B200022043FFF74FFF024A0423301CEB
:100710009370F8BD840200100480044000800440FF
:1007200000800540AAAF000055AF0000D60E0000C3
:1007300000E9A435008F42338047A11900093D002C
:10074000093D000070B5474CA378251C042B0FD140
:10075000454B0025617845489D70E570FFF750FFD7
:10076000434B18800523A370FFF72CFF10205EE099
:10077000A0208001FFF718FFA378052B39D1502363
:1007800018426DD00020FFF70FFFE378C1B2364C5E
:10079000002B05D1EB786A78E2540133DBB2EB70C1
:1007A000EB78334EE1540133DBB2EB703088FFF766
:1007B00027FF3080A278EB7804329A4202DBEB7894
:1007C000462B4DD90420A870FFF709FFA378422BD0
:1007D00001D901233380637801205A0641D52B7853
:1007E0001F2B3ED060781F221040C01A4342584150
:1007F00037E0030634D4A3785BB2002B10DA1A4B2F
:100800001B4D9978A2780331501CC0B28A18A07091
:10081000D2B29C5C2888211CFFF7F2FE28801AE0E7
:10082000A378032B06D102071AD50420A070FFF786
:10083000D6FE15E0A3785A1CD2B25BB2A270002B90
:1008400006D0AA24012B06D1094B1C88240A02E0F9
:10085000074B1C88E4B2802000022043FFF7A4FE6F
:10086000002070BD84020010E4020010FFFF0000B1
:100870002C03001008B5074B00209A78052A07D1F1
:10088000DA78824204D104209870FFF7A8FE012094
:1008900008BDC0468402001070B5134D0023AA7035
:1008A000934205DACE5CEC1CE41826700133F7E7BE
:1008B0000E4C430604D41F2398432378C018C0B2BB
:1008C000687061780A48FFF79BFE0A4B1880AA7887
:1008D00002235B429B1ADBB2A370FFF773FE0C206E
:1008E000FFF77DFE70BDC046E402001084020010D8
:1008F000FFFF00002C03001070B5061C0D1C141C1B
:10090000FFF7B8FF002802D1FFF71CFFF8E7301C03
:10091000291C221CFFF7C0FF70BD000008B5044B66
:100920009B785BB2032B02DCFFF70CFFF7E708BDF7
:1009300084020010F7B51B4C0126231C94331E6063
:10094000231DD96F8022D2010A43DA676268082327
:100950009A4362606268144D1343071C636004236A
:100960002B60391C114800F0E5F9231CF033FF22FD
:10097000013828621A601868296A1B688019019377
:100980000A4B89197943584300F0D4F9019AF43499
:10099000D343C01882231B012060AB602B681E4329
:1009A0002E60F7BD0080044000400640B0710B008F
:1009B000024B9A685107FBD5D8617047004006404A
:1009C00008B5002805D0036819700268013202607A
:1009D00002E0081C00F031F908BDF7B5141C0090C6
:1009E0000191002A11DD0A1C0199501A1178002981
:1009F00001D00132F8E7A04201DA241A00E00C1C11
:100A000020279A0702D5302700E020270025D907A4
:100A10000CD4251C002D05DD0098391CFFF7D0FFF4
:100A2000013DF7E7E543ED172540641B2E1C019AB5
:100A3000531B995D002904D00098FFF7C1FF0136D0
:100A4000F5E7251C002D05DD0098391CFFF7B8FFE0
:100A5000013DF7E7E043C01704403019FEBDF0B593
:100A600087B0071C00920C1E09D103AB30221A700C
:100A700059700C9A191C0D9BFFF7AFFF42E0002242
:100A80000192934207D0009B0A2B04D1914202DAD3
:100A900001224C42019200226B466E46DA751636F0
:100AA000751C002C11D0201C009900F087F9092931
:100AB00002DD0E9B3A3BC91830313170201C009981
:100AC00000F038F9013E041CEAE7019B002B12D02C
:100AD0000C9A002A0BD00D9B9B0708D5381C2D21A2
:100AE000FFF76EFF0C9A0124013A0C9203E0013DDE
:100AF0002D232B700024381C291C0C9A0D9BFFF70A
:100B00006CFF201807B0F0BDF0B589B0061C0D1CB5
:100B1000059200242B78002B05D0252B73D1697802
:100B20006A1C002905D1002E74D0336800221A7087
:100B300070E0252966D000232D2901D1AA1C0123AC
:100B4000151C2A78302A03D1022201351343F8E715
:100B500000222978081C3038C7B2092F04D80A218E
:100B60004A4301351218F4E7732907D10599081D86
:100B700009680590002941D128493FE064290ED138
:100B80000599081D0968019361230590009202935D
:100B9000301C0A220123FFF762FF241838E078296D
:100BA00007D10599081D05900968019300926123FA
:100BB00008E058290AD10599081D05900968019394
:100BC000009241230293301C10220BE075290BD1B7
:100BD0000599081D0968019361230590009202930D
:100BE000301C0A220023D6E7632911D10598011D84
:100BF0000068059107A9087000204870301CFFF7B5
:100C0000ECFECAE7151C2978301CFFF7D9FE013429
:100C100001357FE7201C09B0F0BDC046220F00005F
:100C20000FB407B504AA08CA0020191C0192FFF7E7
:100C30006BFF03B008BC04B0184710B5041E0A2CA3
:100C400002D10D20FFF7B4FE201CFFF7B1FE10BD4E
:100C500010B5084C3B232360074B6060A160E36044
:100C600072B6211C1431201C044B984762B660698F
:100C700010BDC04688020010E02E0000F11FFF1FCB
:100C800010B5074C322323606060A16072B6211C4E
:100C90001431201C034B984762B6606910BDC046F2
:100CA00088020010F11FFF1F10B5084C332323608A
:100CB000074B6160A060E260236172B6211C1431B1
:100CC000201C044B984762B6606910BD8802001072
:100CD000E02E0000F11FFF1F38B5074C3623051C1E
:100CE000236072B6211C1431201C044B984762B655
:100CF000A3692B60606938BD88020010F11FFF1FD7
:100D000038B50A4C3A23051C236072B6211C1431F5
:100D1000201C074B984762B6A3692B60E3696069A2
:100D20006B60236AAB60636AEB6038BD88020010B9
:100D3000F11FFF1F002934D00123002210B4884284
:100D40002CD301242407A14204D2814202D20901FA
:100D50001B01F8E7E400A14204D2814202D249001B
:100D60005B00F8E7884201D3401A1A434C08A042BE
:100D700002D3001B5C0822438C08A04202D3001B54
:100D80009C082243CC08A04202D3001BDC0822436B
:100D9000002803D01B0901D00909E3E7101C10BC8F
:100DA0007047002801D00020C04307B4024802A1C8
:100DB0004018029003BDC046190000000029F0D081
:100DC00003B5FFF7B9FF0EBC4243891A1847C04666
:100DD0007047C046776169742025640A0072616DAE
:100DE000203078255820666C61736820307825584B
:100DF0002070616765202564207365637420256415
:100E000020006961702065726173652025642C0083
:100E100020666C6173682025640A0074696D6564DE
:100E2000206F75740A00626164206372632025304C
:100E300034580A00676F7420256420622068647249
:100E40002030782558206372632025580A0073618A
:100E5000766520636F6E66696720307825580A00D2
:100E6000636C6F636B20256C750A0070617274206F
:100E70006964203078253034580A00310A00320A7B
:100E80000064656661756C7420636F6E6669670ADD
:100E9000007061697265642067726F7570202564E7
:100EA000206E6F64652025640A00330A00340A004E
:100EB000350A006C61756E63684170700A00676F77
:100EC000210A006C61756E6368417070206661690B
:100ED0006C65640A0000000001CC01D8001401F028
:100EE000003C002801E401A0006C007801B400502F
:100EF000019C01880044010402000302048A0505E4
:100F000006C307D9080009000B201942254029DC37
:100F10002E882F2D3005370038003C8F3D106F2074
:0C0F20000000286E756C6C2900000000B9
:04000003000000CB2E
:00000001FF
