:100000000010001049000000410000004300000003
:1000100000000000000000000000000000000000E0
:1000200000000000000000000000000000000000D0
:10003000000000000000000045000000D9010000A1
:10004000FEE7FEE7FEE7FEE700230A4A0A499A18A0
:100050008A4204D20949C95804331160F5E7084BB4
:10006000084A934202D2002204C3F9E700F0BCF828
:10007000FEE7C046800200108002001070090000F8
:100080008002001020030010FEE7FEE780218A2393
:10009000A02289029B011206D150FEE7034B19688A
:1000A0001A68521A8242FBD37047C0468002001081
:1000B00010B5031C013A04D40C7801311C700133D3
:1000C000F8E710BD10B5064CFA2023689840FFF7FA
:1000D000E5FF23680F2B01DC0133236010BDC04610
:1000E000B002001070B5061C01200D1C0024404217
:1000F00080B2AC4205DA315D013400F0BDF9A4B242
:10010000F6E770BD10B5064C8020618B40010901F7
:10011000FFF7E8FFA38B181A4342584110BDC046B1
:10012000B4020010F8B58C0A8E09071C0D1C201CA7
:10013000211C00F04DFB311C301C00F031FB211C58
:10014000201C00F045FB381C291C402200F054FB09
:10015000F8BD000038B5031C602040421043C0B217
:10016000CAB2191C00F0FEFA002000F00DFB0B4B88
:100170001C681D1C00F01CFA002806D12B681B1BF4
:10018000F92BF7D90120404207E0054B9B78002B63
:10019000F4D0044B18884342584138BD8002001007
:1001A000D40200101C03001010B50A4C0123201CBF
:1001B00020212360FFF796FF002809D01E21201C74
:1001C000FFF790FFFC21E0830901201CFFF7AAFF45
:1001D00010BDC046B4020010024B1A6801321A600A
:1001E0007047C04680020010804B8149DA6FF0B53D
:1001F0000A43DA677F4B804A804CDA60804AA9B0B4
:100200001A61804B804A00255A60216AC022090287
:10021000090A12060A43226207229D6003A81A6097
:1002200000F002FB0A20FFF739FF0195774DFC2112
:1002300009012022281CFFF73BFF281C2021FFF783
:1002400051FF2C1C002808D101200221D42200F0EB
:100250002DF96F4F00233B6021E000230133212B58
:10026000F2D0E218013A00211170F7E769498A7863
:10027000142A0FD10DAE0331301CFFF719FFB378EC
:100280000EA92371F378102263486371FFF710FF02
:10029000FFF78AFF2279002A1FD1FFF713FF09A871
:1002A00000F0D6FA802312AE9B0033802379102110
:1002B000B37063795848F370FFF714FFB080684655
:1002C00009A910224E30FFF7F3FE301C1621402200
:1002D000FFF740FF0028C9DCDCE760790028DCD0AC
:1002E000022100F0E3F800233B60802305A89B0077
:1002F0000380238B08214380638B00228380A38BA0
:10030000C380FFF727FF002815DD42498A78082AB5
:1003100011D107AE0331301CFFF7CAFE73882B835F
:10032000B3886B83F388AB83FFF73EFFFFF7EAFEEA
:10033000002816D006E0FFF7C5FEFFF7E3FE002811
:10034000D3D0F3E7FFF7DEFE002844D1019F0F2052
:10035000384064238340181C0137FFF79FFE019744
:1003600064E76F8B051C3F013F37BF110097009F6B
:10037000BD42E7DA264B2E1C002240361A60B60139
:10038000238B04A80421002203804580FFF7E2FEAE
:10039000002802DCFFF796FEF2E71E4B9B78422B0B
:1003A000F8D100231B490531CA1A107884462D2044
:1003B000584367467840C0B2013B1070181C40306B
:1003C000F0D1402218A8FFF773FE18A8311CFFF7E0
:1003D000A9FE0135CBE7094880235B0183600F4B01
:1003E0001B689847002029B0F0BDC0460480044037
:1003F0008000040000C00040FFFFFF0C00ED00E0A3
:100400000E0F0DFF10E000E0DF2E0000B402001020
:10041000B0020010D4020010BC0200100410000052
:10042000F1231B051843044B98619A68D107FCD54A
:10043000014B586980B270470080054008B5A02084
:100440008001FFF7EDFF5023184203D00020FFF793
:10045000E7FFF4E708BD10B5041C80204000FFF75B
:10046000DFFF1C239843044381231B02E0B218439F
:10047000FFF7D6FF10BD000030B50F22041C0A4B59
:1004800014406400E45A00094440081C1040400035
:10049000C55A09096C40224049005200D25ACB5A31
:1004A00020095840504030BD24090000F8B5171C01
:1004B000344A0E1C344910705770CC6F051C8020D4
:1004C0000001324B2043C8675868012188435860B7
:1004D0005868084358602E4B03205862002058602B
:1004E000042018601868014319602A48FFF798FF34
:1004F000BC208001FFF794FFC0B2AA28F5D126489E
:10050000FFF78EFFBC208001FFF78AFFC0B255289D
:10051000F5D1224C20342378002B08D0802062783B
:100520000343180210430234FFF77AFFF3E7B020C9
:1005300000023843FFF774FF022E03D0032E03D1CD
:10054000174802E0174800E017481849800000F0FB
:1005500099F98401201487231B02C0B21843FFF7C6
:100560005FFF201288231B02C0B21843FFF758FF19
:1005700089200002FFF754FF024A0423281C9370CD
:10058000F8BDC0468402001004800440008004408E
:1005900000800540AAAF000055AF0000240900000C
:1005A000C0CA893600A1BC33400ECF19093D0000F6
:1005B00070B5474CA378251C042B0FD1454B002563
:1005C000617845489D70E570FFF756FF434B1880F2
:1005D0000523A370FFF732FF10205EE0A02080010A
:1005E000FFF71EFFA378052B39D1502318426DD099
:1005F0000020FFF715FFE378C1B2364C002B05D180
:10060000EB786A78E2540133DBB2EB70EB78334E6F
:10061000E1540133DBB2EB703088FFF72DFF3080FF
:10062000A278EB7804329A4202DBEB78462B4DD964
:100630000420A870FFF70FFFA378422B01D90123F4
:100640003380637801205A0641D52B781F2B3ED08A
:1006500060781F221040C01A4342584137E0030619
:1006600034D4A3785BB2002B10DA1A4B1B4D997867
:10067000A2780331501CC0B28A18A070D2B29C5C20
:100680002888211CFFF7F8FE28801AE0A378032BA6
:1006900006D102071AD50420A070FFF7DCFE15E092
:1006A000A3785A1CD2B25BB2A270002B06D0AA2447
:1006B000012B06D1094B1C88240A02E0074B1C8839
:1006C000E4B2802000022043FFF7AAFE002070BDA4
:1006D00084020010D4020010FFFF00001C03001071
:1006E00008B5074B00209A78052A07D1DA788242AC
:1006F00004D104209870FFF7AEFE012008BDC0466B
:100700008402001070B5134D0023AA70934205DADD
:10071000CE5CEC1CE41826700133F7E70E4C430660
:1007200004D41F2398432378C018C0B2687061783E
:100730000A48FFF7A1FE0A4B1880AA7802235B4201
:100740009B1ADBB2A370FFF779FE0C20FFF783FE44
:1007500070BDC046D402001084020010FFFF0000EC
:100760001C03001070B5061C0D1C141CFFF7B8FF0D
:10077000002802D1FFF71CFFF8E7301C291C221CBF
:10078000FFF7C0FF70BD000008B5044B9B785BB25B
:10079000032B02DCFFF70CFFF7E708BD8402001013
:1007A00010B5084C3B232360074B6060A160E360F9
:1007B00072B6211C1431201C044B984762B6606944
:1007C00010BDC04688020010E02E0000F11FFF1F80
:1007D00010B5074C322323606060A16072B6211C03
:1007E0001431201C034B984762B6606910BDC046A7
:1007F00088020010F11FFF1F10B5084C332323603F
:10080000074B6160A060E260236172B6211C143165
:10081000201C044B984762B6606910BD8802001026
:10082000E02E0000F11FFF1F38B5074C3623051CD2
:10083000236072B6211C1431201C044B984762B609
:10084000A3692B60606938BD88020010F11FFF1F8B
:1008500038B50A4C3A23051C236072B6211C1431AA
:10086000201C074B984762B6A3692B60E369606957
:100870006B60236AAB60636AEB6038BD880200106E
:10088000F11FFF1F002934D00123002210B4884239
:100890002CD301242407A14204D2814202D20901AF
:1008A0001B01F8E7E400A14204D2814202D24900D0
:1008B0005B00F8E7884201D3401A1A434C08A04273
:1008C00002D3001B5C0822438C08A04202D3001B09
:1008D0009C082243CC08A04202D3001BDC08224320
:1008E000002803D01B0901D00909E3E7101C10BC44
:1008F0007047002801D00020C04307B4024802A17D
:100900004018029003BDC046190000000029F0D035
:1009100003B5FFF7B9FF0EBC4243891A1847C0461A
:100920007047C046000001CC01D8001401F0003C23
:10093000002801E401A0006C007801B40050019C83
:1009400001880044010402000302048A050506C36D
:1009500007D9080009000B201942254029DC2E8800
:100960002F2D3005370038003C8F3D106F200000E0
:0400000300000049B0
:00000001FF
