:100000000010001049000000410000004300000003
:1000100000000000000000000000000000000000E0
:1000200000000000000000000000000000000000D0
:100030000000000000000000450000001902000060
:10004000FEE7FEE7FEE7FEE700230A4A0A499A18A0
:100050008A4204D20949C95804331160F5E7084BB4
:10006000084A934202D2002204C3F9E700F0DCF808
:10007000FEE7C04680020010800200102C0E000037
:100080008002001020030010FEE7FEE780218A2393
:10009000A02289029B011206D150FEE710B5031C75
:1000A000013A04D40C7801311C700133F8E710BD1B
:1000B00038B50A4CFA252368291C9940084800F0F5
:1000C0003DFD084A236810689D401168091AA9423D
:1000D000FBD30F2B01DC0133236038BDB0020010CD
:1000E000F00C000080020010F8B50124071C0E1C63
:1000F00000256442B54207DAA0B2795D00F024FA27
:100100000135041CADB2F5E7211C024800F016FDD4
:10011000A0B2F8BD580D000010B5064C8020618BD0
:1001200040010901FFF7E0FFA38B181A4342584131
:1001300010BDC046B4020010F7B58C0A8E09071C2A
:100140000D1C331C2A1C391C00940E4800F0F6FCD0
:10015000211C201C00F022FD311C301C00F006FD8B
:10016000011C094800F0EAFC211C201C00F016FDCF
:10017000291C381C402200F025FD011C034800F01A
:10018000DDFCF7BDF90C00001E0D00002C0D000079
:1001900010B5094C0123201C1E212360FFF7A4FF8A
:1001A000011CE083054800F0C9FCFC21201C09016A
:1001B000FFF7C2FF10BDC046B4020010370D0000AB
:1001C00038B5031CCAB2A020191C00F02FFB0E4B3F
:1001D0001C681D1C00F054FA002809D12B681B1B59
:1001E000F92BF7D9094800F0A9FC0120404209E0A9
:1001F000074B01201A88002A04D01988054800F00E
:100200009DFC002038BDC04680020010490D000052
:100210001C030010540D0000024B1A6801321A60D2
:100220007047C046800200109B4B9C49DA6FF0B5C6
:100230000A43DA679A4B9B4AE1201A609A4AA9B0AE
:10024000DA609A4A00021A6100F002FB984B994A60
:10025000994C5A60216AC0220902090A12060A430F
:100260002262002507229D6094491A60944800F09C
:1002700065FC03A800F0BEFC0399924800F05EFC08
:1002800001200221D42200F079F901958E4800F076
:1002900055FC8E4DFC2109012022281CFFF7FEFE93
:1002A000281C2021FFF720FF2C1C002806D188489D
:1002B00000F044FC874F00233B602EE0864800F0AE
:1002C0003DFC00230133212BF1D0E218013A00213B
:1002D0001170F7E781498A78142A19D10DAE0331DC
:1002E000301CFFF7DBFEB3780EA92371F3781022E0
:1002F0007B486371FFF7D2FEFFF74AFF21796279ED
:10030000784800F01BFC60792279022100F036F970
:100310002379002B1ED1FFF7CBFE09A800F07EFC4D
:10032000802312AE9B00338023791021B370637950
:100330006B48F370FFF7D8FEB080684609A94E30CD
:100340001022FFF7ABFE301C1621FFF739FF002803
:10035000C0DCDDE76379002BDDD0634800F0EEFB05
:1003600000233B60802305A89B000380238B08218A
:100370004380638B8380A38BC380FFF721FF00281A
:1003800018DD56498A78082A14D107AE0331301C8B
:10039000FFF784FE73882B83B3886B83F388AB836A
:1003A000FFF7F6FE514800F0C9FBFFF7B5FE002845
:1003B00017D006E0FFF77CFEFFF7AEFE0028D1D095
:1003C000F0E74B4800F0BAFBFFF7A6FE002850D13B
:1003D000019B0F221A40642393401A1C454B186856
:1003E0003FE06E8B8022360152018025B6186D01E8
:1003F000B542E6D2374A002313603F4AAB18DF17F5
:10040000BF0EFF18BF11BFB2238B04A804210380C5
:100410004780FFF7D5FE002802DCFFF749FEF3E72F
:100420002E4B9B78422BF8D100232C492D2058438A
:100430000531CA1A1778013B7840C0B210701A1CF7
:100440004032F2D1402218A8FFF728FE04AB5988A9
:1004500080235B018901C91818A8FFF76DFE40359C
:10046000C6E71968091A9142FBD3019A0132019239
:100470000CE7224800F062FB0F4A80235B01936087
:100480001F4B20481C6800F059FBA0471E4800F095
:1004900055FB002029B0F0BD04800440800004001A
:1004A00000C000400601FFFFFFFFFF0C0E0F0DFF15
:1004B00010E000E0DF2E000000ED00E0001BB700C0
:1004C000620D00006D0D00007E0D0000B4020010F2
:1004D000810D0000B0020010840D0000D402001055
:1004E000BC020010940D0000AD0D0000B00D000026
:1004F000B30D00008002001000F0FFFFB60D0000F9
:1005000004100000C10D0000C60D0000F1231B0502
:100510001843044B98619A68D107FCD5014B586980
:1005200080B270470080054010B5041C8020400058
:10053000FFF7ECFF1C239843044381231B02E0B226
:100540001843FFF7E3FF10BD30B50F22041C0A4B20
:1005500014406400E45A00094440081C1040400064
:10056000C55A09096C40224049005200D25ACB5A60
:1005700020095840504030BDD80D0000F8B5171C78
:10058000344A0E1C344910705770CC6F051C802003
:100590000001324B2043C8675868012188435860E6
:1005A0005868084358602E4B03205862002058605A
:1005B000042018601868014319602A48FFF7A6FF55
:1005C000BC208001FFF7A2FFC0B2AA28F5D12648BF
:1005D000FFF79CFFBC208001FFF798FFC0B25528B1
:1005E000F5D1224C20342378002B08D0802062786B
:1005F0000343180210430234FFF788FFF3E7B020EB
:1006000000023843FFF782FF022E03D0032E03D1EE
:10061000174802E0174800E017481849800000F02A
:1006200017FB8401201487231B02C0B21843FFF775
:100630006DFF201288231B02C0B21843FFF766FF2C
:1006400089200002FFF762FF024A0423281C9370EE
:10065000F8BDC046840200100480044000800440BD
:1006600000800540AAAF000055AF0000D80D000083
:10067000C0CA893600A1BC33400ECF19093D000025
:1006800070B5464CA378251C042B0DD1444B002596
:10069000617844489D70E570FFF756FF424B188023
:1006A0000523A37010205EE0A0208001FFF72EFF3D
:1006B000A378052B39D1502318426DD00020FFF7C5
:1006C00025FFE378C1B2364C002B05D1EB786A7870
:1006D000E2540133DBB2EB70EB78334EE15401337B
:1006E000DBB2EB703088FFF72FFF3080A278EB7819
:1006F00004329A4202DBEB78462B4DD90420A870D5
:10070000FFF712FFA378422B01D9012333806378CE
:1007100001205A0641D52B781F2B3ED060781F222E
:100720001040C01A4342584137E0030634D4A3783E
:100730005BB2002B10DA1A4B1B4D9978A27803316B
:10074000501CC0B28A18A070D2B29C5C2888211CB0
:10075000FFF7FAFE28801AE0A378032B06D10207E0
:100760001AD50420A070FFF7DFFE15E0A3785A1C0D
:10077000D2B25BB2A270002B06D0AA24012B06D104
:10078000094B1C88240A02E0074B1C88E4B2802035
:1007900000022043FFF7BAFE002070BD8402001063
:1007A000D4020010FFFF00001C03001008B5074B27
:1007B00000209A78052A07D1DA78824204D10420F1
:1007C0009870FFF7B1FE012008BDC04684020010FA
:1007D00070B5124D0023AA70934205DACE5CEC1C72
:1007E000E41826700133F7E70D4C430604D41F23A9
:1007F00098432378C018C0B2687061780948FFF741
:10080000A3FE094B1880AA7802235B429B1ADBB235
:100810000C20A370FFF788FE70BDC046D402001004
:1008200084020010FFFF00001C03001070B5061CBE
:100830000D1C141CFFF7BAFF002802D1FFF720FFA0
:10084000F8E7301C291C221CFFF7C2FF70BD000016
:10085000F7B51B4C0126231C94331E60231DD96F52
:100860008022D2010A43DA67626808239A436260F1
:100870006268144D1343071C636004232B60391C0A
:10088000114800F0E5F9231CF033FF2201382862FB
:100890001A601868296A1B68801901930A4B891924
:1008A0007943584300F0D4F9019AF434D343C01883
:1008B00082231B012060AB602B681E432E60F7BDB6
:1008C0000080044000400640B0710B00024B9A6863
:1008D0005107FBD5D86170470040064008B5002895
:1008E00005D00368197002680132026002E0081C3A
:1008F00000F031F908BDF7B5141C00900191002AF1
:1009000011DD0A1C0199501A1178002901D0013219
:10091000F8E7A04201DA241A00E00C1C20279A070D
:1009200002D5302700E020270025D9070CD4251C4C
:10093000002D05DD0098391CFFF7D0FF013DF7E7DA
:10094000E543ED172540641B2E1C019A531B995D4E
:10095000002904D00098FFF7C1FF0136F5E7251CF8
:10096000002D05DD0098391CFFF7B8FF013DF7E7C2
:10097000E043C01704403019FEBDF0B587B0071C36
:1009800000920C1E09D103AB30221A7059700C9AD8
:10099000191C0D9BFFF7AFFF42E00022019293422A
:1009A00007D0009B0A2B04D1914202DA01224C426B
:1009B000019200226B466E46DA751636751C002CC5
:1009C00011D0201C009900F087F9092902DD0E9B47
:1009D0003A3BC91830313170201C009900F038F9C9
:1009E000013E041CEAE7019B002B12D00C9A002A5E
:1009F0000BD00D9B9B0708D5381C2D21FFF76EFFF0
:100A00000C9A0124013A0C9203E0013D2D232B7036
:100A10000024381C291C0C9A0D9BFFF76CFF201832
:100A200007B0F0BDF0B589B0061C0D1C059200247E
:100A30002B78002B05D0252B73D169786A1C0029EF
:100A400005D1002E74D0336800221A7070E0252979
:100A500066D000232D2901D1AA1C0123151C2A7858
:100A6000302A03D1022201351343F8E70022297806
:100A7000081C3038C7B2092F04D80A214A4301356F
:100A80001218F4E7732907D10599081D0968059024
:100A9000002941D128493FE064290ED10599081D5C
:100AA000096801936123059000920293301C0A2289
:100AB0000123FFF762FF241838E0782907D1059950
:100AC000081D0590096801930092612308E05829E8
:100AD0000AD10599081D05900968019300924123E8
:100AE0000293301C10220BE075290BD10599081DCB
:100AF000096801936123059000920293301C0A2239
:100B00000023D6E7632911D10598011D00680591DE
:100B100007A9087000204870301CFFF7ECFECAE7F8
:100B2000151C2978301CFFF7D9FE013401357FE709
:100B3000201C09B0F0BDC046240E00000FB407B55C
:100B400004AA08CA0020191C0192FFF76BFF03B02A
:100B500008BC04B0184710B5041E0A2C02D10D20A1
:100B6000FFF7B4FE201CFFF7B1FE10BD10B5084C16
:100B70003B232360074B6060A160E36072B6211CD9
:100B80001431201C044B984762B6606910BDC04602
:100B900088020010E02E0000F11FFF1F10B5074C67
:100BA000322323606060A16072B6211C1431201CC6
:100BB000034B984762B6606910BDC04688020010BA
:100BC000F11FFF1F10B5084C33232360074B6160F2
:100BD000A060E260236172B6211C1431201C044B1A
:100BE000984762B6606910BD88020010E02E0000D0
:100BF000F11FFF1F38B5074C3623051C236072B662
:100C0000211C1431201C044B984762B6A3692B6049
:100C1000606938BD88020010F11FFF1F38B50A4C0B
:100C20003A23051C236072B6211C1431201C074B8B
:100C3000984762B6A3692B60E36960696B60236AB9
:100C4000AB60636AEB6038BD88020010F11FFF1FC4
:100C5000002934D00123002210B488422CD301246F
:100C60002407A14204D2814202D209011B01F8E704
:100C7000E400A14204D2814202D249005B00F8E7BD
:100C8000884201D3401A1A434C08A04202D3001BE9
:100C90005C0822438C08A04202D3001B9C0822431C
:100CA000CC08A04202D3001BDC082243002803D05A
:100CB0001B0901D00909E3E7101C10BC704700288C
:100CC00001D00020C04307B4024802A1401802909E
:100CD00003BDC046190000000029F0D003B5FFF79E
:100CE000B9FF0EBC4243891A1847C0467047C04638
:100CF000776169742025640A0072616D203078255F
:100D00005820666C617368203078255820706167C0
:100D10006520256420736563742025642000696163
:100D2000702065726173652025642C0020666C61FB
:100D300073682025640A007361766520636F6E66B0
:100D4000696720307825580A0074696D6564206FE2
:100D500075740A0062616420637263202530345820
:100D60000A00636C6F636B20256C750A00706172FA
:100D7000742069642030782530346C580A00310AB8
:100D800000320A0064656661756C7420636F6E667C
:100D900069670A007061697265642067726F7570B7
:100DA000202564206E6F64652025640A00330A00E4
:100DB000340A00350A006C61756E63684170700A10
:100DC00000676F210A006C61756E63684170702066
:100DD0006661696C65640A00000001CC01D80014EA
:100DE00001F0003C002801E401A0006C007801B48F
:100DF0000050019C01880044010402000302048A9F
:100E0000050506C307D9080009000B201942254033
:100E100029DC2E882F2D3005370038003C8F3D12FD
:0C0E20006F200000286E756C6C2900002B
:0400000300000049B0
:00000001FF
