:1070000011E0A0E0B1E0EEE2FDE702C005900D92D4
:10701000A83BB107D9F712E0A8EBB1E001C01D927F
:10702000A63FB107E1F7CDB7DEB7A297DEBFCDBF70
:10703000112424B714BE98E10FB6F8949093600021
:10704000109260000FBE85E08093810082E0809303
:10705000C0009093C10086E08093C20088E08093D6
:10706000C400549A21FD0DC082E00FD2E0E0F0E0B0
:1070700080E80FB6F89480936100E09361000FBE42
:10708000099582E090E020E80FB6F8942093610023
:10709000809361000FBE84E0F8D186E591E00BD2C9
:1070A00064E170E080E090E0C3D188249924B5E0E9
:1070B0004B2E512C4C0E5D1E1E010894211C311CC0
:1070C000A6EDB2E0E0EEFFEF84918D933196E1F70B
:1070D0008FE591E0F0D186ED92E00DD287E691E068
:1070E000EAD106ED12E006C0F80181918F01EFD1DF
:1070F00080E2D9D1F2E0063F1F07B1F78AE0D3D191
:10710000C801809760E270E0D0D3892B49F08AE60D
:1071100091E0D1D180E2E6EDF2E011928A95E9F7B3
:10712000612CA1E07A2E81E063E044ED43D380E757
:1071300091E0C1D110927C027E866D868091DA0248
:107140008F878091DB02888B8EED92E060E170E0AA
:10715000ACD39A8B898BDE015396EDE7F2E080E1A8
:1071600001900D928150E1F7CE010D9666E170E03D
:1071700040E450E01DD51816190624F580918F02C1
:10718000843101F5809192028093DA02809193021A
:107190008093DB02AEEDB2E0E4E9F2E080E1019041
:1071A0000D928150E1F771D488E791E084D180910C
:1071B000DB028DD18DE091E07ED18091DA0287D122
:1071C0008AE071D14091DA02442321F08091DB0200
:1071D000882311F4BBD3B0CF63E0ECD28EE791E00B
:1071E0006AD110927C0219E401C0B0D37E826D8214
:1071F0008091EE029091EF0298878F838091F00248
:107200009091F1029A8789878091F2029091F3021E
:107210009C878B87C20168E070E040E050E0C8D4F2
:107220001816190624F580918F02883001F5809197
:107230009202909193029093EF028093EE028091DC
:107240009402909195029093F1028093F0028091C4
:107250009602909197029093F3028093F20215D4D4
:1072600089E891E028D190D3892B29F089C0115069
:1072700009F0BBCF58CF0091F0021091F102F4E079
:10728000000F111FFA95E1F7015C1F4FE6E016951C
:107290000795EA95E1F7CC24DD24EE24FF2453C0C2
:1072A00010927C0279E4B72E01C050D38091EE0297
:1072B0009091EF029A838983DC82CB82C10164E0E2
:1072C00070E040E050E074D418161906C4F58091BF
:1072D0008F028234A1F58B819C8129813A8182279A
:1072E000932720919002309191022817390739F5A0
:1072F00020E030E090E0F901EE56FD4F80818927D3
:1073000080832F5F3F4F9D52903CA9F7C70162E9F0
:1073100072E040E48FD385E991E0CDD08B81D7D066
:1073200088E991E0C8D0C701E6D08AE0BCD00894D3
:10733000C11CD11C80E490E0E80EF91E04C0BA9490
:1073400009F0B3CFF0CEC016D1060CF4A9CF780166
:1073500066E0EE0CFF1C6A95E1F787010F7710706D
:10736000E6FE0EC040E850E0401B510BC8018454BB
:107370009E4F6FEF70E078D4C701801B910BB9D29C
:107380008BE991E098D000D3892BB1F485EA91E0A4
:1073900092D094012F70307064E670E080E090E04D
:1073A00004C0660F771F881F991F2A95D2F740D017
:1073B0000894811C911C84CE83EB91E07CD086E004
:1073C00064D080E090E020E80FB6F894209361004C
:1073D000809361000FBE28E088E190E00FB6F8943A
:1073E000A895809360000FBE20936000FFCFAA276E
:1073F00097FDA095BA2FBC01CD0120EA3FE040E007
:1074000050E039D420E034E040E050E053D45095CF
:107410004095309521953F4F4F4F5F4F30938500FA
:107420002093840081E086BB089586B3817008951F
:10743000EF92FF920F931F937B018C010EC088EE99
:1074400093E0D5DFF2DF8823E9F388E19CEFAFEF2B
:10745000BFEFE80EF91E0A1F1B1F99EEE91693E015
:10746000F90690E0090790E0190748F7E114F104E4
:107470000105110529F0C701BADFD7DF8823E9F339
:107480001F910F91FF90EF9008951F93182F88EC94
:1074900090E0ADDFCADF8823E9F34C9AA89511503C
:1074A000B1F71F910895982F8091C00085FFFCCF00
:1074B0009093C6000895CF93DF93EC0102C021960C
:1074C000F2DF88818823D9F7DF91CF9108951F9348
:1074D000182F82958F708A3010F0895A01C0805D14
:1074E000E2DF812F8F708A3010F0895A01C0805DF1
:1074F000DADF1F9108950F931F938C01812F992735
:10750000E6DF802FE4DF1F910F9108958EBD0DB44B
:1075100007FEFDCF8EB50895EF92FF920F931F9354
:107520007C012A98892F9927F1DF082F10E0102F6E
:1075300000278E2DEBDF2A9A90E0802B912B1F9154
:107540000F91FF90EF90089589B18695869580FD03
:10755000C0C080E090E0E0DF8091BB01853009F0A1
:1075600051C080E090EBD8DF282F8091BA018823AA
:1075700071F49091B901992351F08091BA01E82FEB
:10758000F0E0E357FD4F90838F5F8093BA018091C5
:10759000BA01E82FF0E0E357FD4F20838F5F80931F
:1075A000BA018091D4029091D5028227282F22958A
:1075B0002827022E269526952025022E2695202561
:1075C0002770082E892F269507942795902D8227BE
:1075D00006942795902582279093D5028093D40214
:1075E00080918F022091BA0190E0049630E08217DA
:1075F00093072CF08091BA01873408F46AC08DE0BB
:1076000092E866C08091BB0187FF2EC0E0918F0297
:107610008091BB018F5F8093BB018150ED5FE80FCC
:10762000F0E0E357FD4FE0818091D4029091D502C4
:107630008E27282F22952827022E2695269520254D
:10764000022E269520252770082E892F269507942F
:107650002795902D82270694279590258227909331
:10766000D5028093D40230C08091BB018F5F80939C
:10767000BB018150833021F184302CF4882399F0B0
:10768000813009F515C0893019F08A30E1F402C063
:10769000EDE21AC0E0918D0290918F028EEF891B6E
:1076A0008093BB0111C08091D4029091D50206C095
:1076B0008091D4029091D502892F9927E82F04C098
:1076C0008DE092E829DFEAEA8E2F90E0805098441E
:1076D00023DF8091BB01853099F580918F02209145
:1076E000BA0190E0049630E08217930724F080916D
:1076F000BA01873428F184E08093BB0180918F0226
:10770000833430F081E090E09093D5028093D402EE
:1077100080918E0286FF4CC08091B801282F30E006
:10772000C9018F7190704F9709F442C080918E0209
:1077300090E0822793278F719070892B09F438C0CD
:107740008091BB01843009F031C010928F0280918A
:107750008F028093BA018FEF9FEF9093D5028093B1
:10776000D4022091B9012223D9F08227282F229513
:107770002827022E269526952025022E269520259F
:107780002770082E892F269507942795902D8227FC
:1077900006942795902582279093D5028093D40252
:1077A00085E08093BB018DED92E8B6DE80E0089520
:1077B00081E00895FF920F931F93182FF62E042F48
:1077C0008093B8014093B90180E091E074DE812F8D
:1077D0007EDE89E091E06FDE8F2D79DE8DE091E035
:1077E0006ADE802F74DE8AE05EDE2A9A229A229A6E
:1077F00084B18C6384B981E58CBD8DB581608DBD0C
:1078000052985A9A80E090E087DE85E092E884DE24
:1078100080E098EB02C080E090E07EDE4A9BFBCFE8
:107820008F2D90E044E0880F991F4A95E1F7876C0F
:10783000906872DE80E496EA6FDE86E096EC6CDE9D
:1078400082EA94E969DE8CEA92EC66DE002339F084
:1078500083E89AEC61DE802F90E09E6C05C08BE897
:107860009AEC5ADE8DE29EEC57DE83E894EC54DE0F
:1078700080E598E951DE87E79CEC4EDE80E090EEF3
:107880004BDE80E098EC48DE89E490EC45DE84E055
:107890008093BB011F910F91FF90089501C054DEAA
:1078A0008091BB018430DCF30895FC012FEF3FEFA2
:1078B00018C081912827822F82958227082E8695CD
:1078C00086958025082E869580258770022E232F89
:1078D000869507948795302D28270694879530251F
:1078E0002827615070408FEF6F3F780711F7C9016B
:1078F0000895CF93DF93EC0181E191E0DCDDCE01CF
:10790000FADD8AE0D0DD83E0FE0187BFE89507B6A7
:1079100000FCFDCFACEBB1E0FE0121E08D919D912B
:107920000C0127BFE8951124329682E0AC33B807EA
:10793000A9F785E0FE0187BFE89507B600FCFDCFFB
:1079400081E187BFE895DF91CF9108951F9388E18A
:1079500091E0B1DD10917C02812FB9DD8AE0A3DDD9
:107960006DE370E080E090E0012E04C0660F771FA9
:10797000881F991F0A94D2F75BDD143018F41F5F3B
:1079800010937C021F910895CF93DF932091F00212
:107990003091F10254E0220F331F5A95E1F7CFEFF7
:1079A000DFEF80E090E01AC0FC010196E491CE2761
:1079B0004C2F42954C27042E469546954025042E83
:1079C0004695402547700C2ECD2F46950794479538
:1079D000D02DC42706944795D025C4278217930736
:1079E00019F781E291E067DDCE0185DD85E291E066
:1079F00062DD8091F2029091F3027DDD8091F202CE
:107A00009091F302C817D90719F08CE291E002C0F7
:107A100081E391E050DD20E030E08091F20290912E
:107A2000F302C817D90711F421E030E0C901DF9152
:107A3000CF910895EF92FF920F931F93CF93DF930F
:107A40007C01EC01CF77D070042F10E0CE018E774F
:107A5000907084549E4FA801FED00C0F1D1F00385B
:107A6000110560F0C7018C1B9D0B43DF00581040CF
:107A70008CEB91E06CE372E0A801EDD0DF91CF9147
:107A80001F910F91FF90EF90089581E090E0A0E0AA
:107A9000B0E08093D6029093D702A093D802B0931F
:107AA000D90286ED92E060E270E0FFDE892BE9F01A
:107AB00086ED92E06EE170E0F8DE9093F50280933F
:107AC000F40290E0E92FF0E0E058F0408491E058B3
:107AD000FF4FE454FE4F80839F5F903899F780EE0C
:107AE0009FEF66ED72E040E2A5CF08950F931F93DC
:107AF000CF93DF93182FEB01042F8091BB018530CA
:107B0000E1F48091BA018823C1F400DD80FD15C045
:107B10008DE092E801DD84E08093BB018091B901A2
:107B200080938D0200938F02402F50E080E992E015
:107B3000BE0191D016FF03C007C006DDDECF107E68
:107B40008091B8018F71180F10938E028FEF9FEF05
:107B50009093D5028093D4028091D4029091D50263
:107B600020918D028227282F22952827022E2695E4
:107B700026952025022E269520252770082E892F50
:107B8000269507942795902D822706942795902572
:107B900082279093D5028093D40286E08093BB0124
:107BA0008DE392E8B9DCDF91CF911F910F91089599
:107BB000CF92DF92EF92FF920F931F938C017B0184
:107BC0006A0186E391E077DC8E2D81DC8BE391E026
:107BD00072DC8C2D806AB8014E2D88DF80E05EDE7D
:107BE0008AEF90E004DC09C020DC882331F08EE3CA
:107BF00091E061DC8FEF9FEF27C0A6DC8823A1F323
:107C000080918F02882381F38091D4029091D502D4
:107C1000892B69F087E491E04EDC8091D402909149
:107C2000D50269DC8AE03FDC80E090E00DC0809105
:107C30008F024DDC80E591E03EDC80918E0247DCD6
:107C40008AE031DC81E090E01F910F91FF90EF908E
:107C5000DF90CF900895FB01DC0102C001900D92EE
:107C600041505040D8F70895DC0101C06D93415058
:107C70005040E0F70895629FD001739FF001829F0A
:107C8000E00DF11D649FE00DF11D929FF00D839FAB
:107C9000F00D749FF00D659FF00D9927729FB00D48
:107CA000E11DF91F639FB00DE11DF91FBD01CF015B
:107CB0001124089597FB092E05260ED057FD04D0F8
:107CC00014D00AD0001C38F4509540953095219579
:107CD0003F4F4F4F5F4F0895F6F790958095709501
:107CE00061957F4F8F4F9F4F0895A1E21A2EAA1BD7
:107CF000BB1BFD010DC0AA1FBB1FEE1FFF1FA2175C
:107D0000B307E407F50720F0A21BB30BE40BF50B58
:107D1000661F771F881F991F1A9469F760957095E1
:0E7D2000809590959B01AC01BD01CF010895A7
:107D2E00524631322069643D0020623D0020673D9D
:107D3E0000466C61736820004261636B6F6666205B
:107D4E000053573D002077616E743D00204E4F0A60
:107D5E0000204F4B0A00534E4420002D3E00746904
:107D6E006D656F75740A0062616420637263200032
:107D7E00206864723D000A0A424F4F54210A0043A4
:107D8E006F6E66696720003A2000444546210A005E
:107D9E003D3D506169720A00502069643D003D3DD1
:107DAE00557067726164650A003D3D446F776E6C75
:107DBE006F61640A004620002040003D3D5265611F
:107DCE006479210A00202057524F4E4720415050CF
:087DDE00210A004150500A0087
:040000030000700089
:00000001FF
