:100000000C9434000C9451000C9451000C94510049
:100010000C9451000C9451000C9451000C9451001C
:100020000C9451000C9451000C9451000C9451000C
:100030000C9451000C9451000C9451000C945100FC
:100040000C94B1000C9451000C9451000C9451008C
:100050000C9451000C9451000C9451000C945100DC
:100060000C9451000C94510011241FBECFEFD8E026
:10007000DEBFCDBF11E0A0E0B1E0ECE6F2E002C0EF
:1000800005900D92A030B107D9F711E0A0E0B1E0E2
:1000900001C01D92AA30B107E1F70E94A2000C94A2
:1000A00034010C940000219A82E083B98091000110
:1000B000089582E083B920E030E004C083EC20356D
:1000C000380771F1809100012F5F3F4F882341F580
:1000D000F5CF83EC2035380741F1809100012F5F87
:1000E0003F4F882311F5F5CF83EC2035380711F108
:1000F000809100012F5F3F4F8823E1F4F5CF21501D
:100100003040404050402F3F8FEF38078FEF480777
:100110008FEF5807B1F080910001882391F4EFCF61
:1001200082E083B920E030E0D8CF82E083B920E0DC
:1001300030E0DECF82E083B920E930ED43E050E0EB
:10014000DECF0895CF93DF930E94F9000E94530001
:10015000C0E0D0E00E9459002097E1F30E94000027
:10016000F9CF1F920F920FB60F9211242F933F9346
:100170008F939F93AF93BF93809105019091060158
:10018000A0910701B0910801309109010196A11DCC
:10019000B11D232F2D5F2D3720F02D570196A11D66
:1001A000B11D209309018093050190930601A0934E
:1001B0000701B09308018091010190910201A09183
:1001C0000301B09104010196A11DB11D80930101AD
:1001D00090930201A0930301B0930401BF91AF91EA
:1001E0009F918F913F912F910F900FBE0F901F9075
:1001F0001895789484B5826084BD84B5816084BD8F
:1002000085B5826085BD85B5816085BDEEE6F0E08F
:10021000808181608083E1E8F0E0108280818260EB
:100220008083808181608083E0E8F0E0808181606C
:100230008083E1EBF0E0808184608083E0EBF0E09C
:10024000808181608083EAE7F0E080818460808340
:1002500080818260808380818160808380818068EA
:0C02600080831092C1000895F894FFCF35
:00000001FF
