:100000000010001049000000410000004300000003
:1000100000000000000000000000000000000000E0
:1000200000000000000000000000000000000000D0
:100030000000000000000000450000009D000000DE
:10004000FEE7FEE7FEE7FEE700230A4A0A499A18A0
:100050008A4204D20949C95804331160F5E7084BB4
:10006000084A934202D2002204C3F9E700F01EF8C6
:10007000FEE7C0468002001080020010040100006C
:100080008002001084020010FEE7FEE780218A2330
:10009000A02289029B011206D150FEE7024B1A688A
:1000A00001321A607047C04680020010114B124A9C
:1000B000C0215A60114A0906106A0002000A014371
:1000C000116200229A6007221A60A0228023120681
:1000D0009B01D15880200143D1508C23A022802144
:1000E0009B011206D150064B19681A68521AF92A58
:1000F000FBD9F2E710E000E02F75000000ED00E012
:040100008002001069
:0400000300000049B0
:00000001FF
