:1020000000100010CD200000C1200000C3200000FF
:1020100000000000000000000000000000000000C0
:1020200000000000000000000000000000000000B0
:102030000000000000000000C52000001121000089
:10204000CB200000CB20000000000000CB200000CF
:10205000CB200000CB2000000000000000000000AA
:10206000CB200000CB200000CB200000CB200000C4
:10207000CB200000CB20000000000000C9200000A1
:102080000000000000000000000000000000000050
:102090000000000000000000000000000000000040
:1020A000CB200000CB200000CB200000CB20000084
:1020B000CB200000CB200000CB200000CB20000074
:1020C000FEE7FEE7FEE7FEE7FEE7FEE700230A4A3B
:1020D0000A499A188A4204D20949C958043311603E
:1020E000F5E7084B084A934202D2002204C3F9E7FD
:1020F00000F016F8FEE7C0460002001000020010D3
:10210000782100000002001004020010FEE7C04623
:10211000024B1A6801321A607047C0460002001074
:10212000114B124AC0215A60114A0906106A000276
:10213000000A0143116200229A6007221A60A0225D
:10214000802312069B01D15880200143D1508C235B
:10215000A02280219B011206D150064B19681A68F3
:10216000521AF92AFBD9F2E710E000E0DF2E000056
:0821700000ED00E00002001088
:04000003000020CD0C
:00000001FF
