:1078000011E0A0E0B1E0E2E9FFE702C005900D92CF
:10781000A030B107D9F711E0A0E0B1E001C01D929E
:10782000AA3EB107E1F7112482E090E020E80FB60C
:10783000F89420936100809361000FBE84B714BE5A
:1078400098E10FB6F89490936000109260000FBE1C
:1078500081FD03C0E0E0F0E0099510E03EEC432E2E
:1078600031E0532E4CE1B42EAA24A39451E5952E79
:1078700064E0762E00E878E0272E312CE0E1CE2E71
:10788000E7E2DE2EE12CF12C2DC010E0C1010FB695
:10789000F89400936100809361000FBED701C60188
:1078A000012E04C0880F991FAA1FBB1F0A94D2F78C
:1078B00040E050E0BA0104C04F5F5F4F6F4F7F4F11
:1078C000481759076A077B0724F42091CB0122232C
:1078D00099F3E2E0F0E00FB6F89400936100E093D2
:1078E00061000FBE8EEC91E060EE73E04CE150E081
:1078F00029D38091CE01877029F48CE190E0C5D224
:10790000009759F0F2018B2D11928A95E9F7809139
:10791000CE018770806D8093CE018091CE01882E3C
:1079200086948694869493E08922829586958770C2
:107930008850A0920201809303012A9A229A229AE7
:1079400084B18C6384B99CBC8DB581608DBD529827
:107950005A9A80E090E039D185E092E836D180E013
:1079600098EB33D103C080E090E02FD189B182FF42
:10797000FACF882D90E024E0880F991F2A95E1F72F
:10798000876C906822D180E496EA1FD186E096EC5D
:107990001CD182EA94E919D18CEA92EC16D180903C
:1079A0000301882041F083E89AEC0FD1882D90E004
:1079B0009E6C0BD106C08BE89AEC07D18DE29EEC51
:1079C00004D183E894EC01D180E598E9FED087E703
:1079D0009CECFBD080E090EEF8D080E098ECF5D005
:1079E00089E490ECF2D07092000182ED91E062E0C7
:1079F000F5D1863029F066D2882309F4B6C0BBC021
:107A000080910701909108012091D2013091D3011A
:107A10008217930709F0A9C082ED91E067E071E059
:107A200046E050E079D2009721F44CD2882309F047
:107A30009AC0A2EDB1E0E7E0F1E086E001900D929E
:107A40008150E1F78AE190E020D29093E9018093A0
:107A5000E8018EEC91E060EE73E04CE150E082D200
:107A60008091D2019091D3019A8389831C821B82D9
:107A7000B3E0CB2EBB24B39415E0A12E01E1902EF0
:107A800068C013E0CE01019664E0A8D1823469F4A5
:107A90006B817C8189819A818627972720910701B4
:107AA000309108012817390719F0115059F763C0B0
:107AB000862F8295880F880F8074E82FF0E0E55BB1
:107AC000FE4FA9E0B1E090E40D9001929150E1F7F2
:107AD000803409F03AC0AB014E7FA6E0440F551F39
:107AE000AA95E1F7F999FECFFA01C0925700E895FF
:107AF00007B600FCFDCFE0914B0120E030E0D9015A
:107B0000A55BBE4F8901040F151F11968C9111972B
:107B100090E0982F88278E0F911DF8010C01B092EC
:107B20005700E89511241296EC9112972E5F3F4F63
:107B30002038310521F7FA01A0925700E89507B6E1
:107B400000FCFDCF90925700E8956F5F7F4F7C83DC
:107B50006B832B813C818091D4019091D5012817B2
:107B6000390708F48ECFAED106C01F5F1B3008F076
:107B70008CCE8CCEFFCF28E088E190E00FB6F89451
:107B8000A895809360000FBE20936000F3CF8627F6
:107B9000682F62956827062E669566956025062EE5
:107BA000669560256770082E892F669507946795FE
:107BB000902D8627069467959025862708958EBD7B
:107BC0000DB407FEFDCF8EB508950F931F93CF938D
:107BD000DF93EC012A988D2FF2DF90E0182F002719
:107BE0008C2FEDDF2A9A90E0802B912BDF91CF91A3
:107BF0001F910F910895CF9389B18695869580FD49
:107C000095C080E090E0E1DF809100018530E1F5F2
:107C100080E090EBDADF682F80910101882371F416
:107C200090910301992351F080910101E82FF0E038
:107C3000EC5FFE4F90838F5F809301018091010183
:107C4000E82FF0E0EC5FFE4F60838F5F80930101CF
:107C50002091CC013091CD01C90199DF9093CD01E4
:107C60008093CC01809106012091010190E004965F
:107C700030E0821793072CF080910101873408F4DB
:107C800055C08DE092E851C08091000187FF1AC075
:107C9000E091060180910001982F9F5F9093000171
:107CA000ED5FE80FF0E0EC5FFE4FC0812091CC016A
:107CB0003091CD01C9016C2F6ADF9093CD01809383
:107CC000CC012FC080910001982F9F5F90930001FD
:107CD000833019F184302CF4882399F0813001F538
:107CE00016C0893019F08A30D9F402C0CDE219C02B
:107CF000C0910401909106018EEF891B80930001D1
:107D000010C08091CC019091CD01C82F0AC0809104
:107D1000CC019091CD01C92F04C08DE092E855DFD0
:107D2000CAEA8C2F90E0805098444FDF8091000188
:107D3000853089F5809106012091010190E004963B
:107D400030E08217930724F080910101873418F105
:107D500084E08093000180910601833430F081E05B
:107D600090E09093CD018093CC018091050186FF36
:107D700030C02091020130E0C9018F7190708F31C5
:107D8000910539F18091050190E0822793278F7149
:107D900090700097F1F0809100018430E1F410922E
:107DA0000601109201018FEF9FEF9093CD01809318
:107DB000CC0160910301662329F0E9DE9093CD01A7
:107DC0008093CC0185E0809300018DED92E8FDDE8B
:107DD00002C081E001C080E0CF9108951F93CF934E
:107DE000DF93EC01162F809100018530C9F5809159
:107DF00001018823A9F5E3DE80FD32C08DE092E821
:107E0000E4DE84E08093000180910301809304010B
:107E100010930601412F50E087E091E0BE0189D028
:107E2000809102018F71805E809305018FEF9FEF3B
:107E30009093CD018093CC018091CC019091CD01A4
:107E400060910401A4DE9093CD018093CC0186E083
:107E5000809300018DE392E8B8DEC8EEDDEF02C04A
:107E6000CADEC1CFC8DE882349F08091CC01909151
:107E7000CD01009719F48091060103C0219791F775
:107E800080E0DF91CF911F910895EF92FF920F93C1
:107E90001F93CF93DF937C010EEC11E0C0E0D0E0A4
:107EA0008FEF9FEF05C0F80161918F0170DE219681
:107EB000CE15DF05C1F7DF91CF911F910F91FF9094
:107EC000EF9008950F931F93CF93DF930091D40108
:107ED0001091D50136E0000F111F3A95E1F7C0E08F
:107EE000D0E02FEF3FEF06C0FE016491C9014FDEE5
:107EF0009C012196C017D107B9F781E04091D601C6
:107F00005091D7012417350709F080E0DF91CF9118
:107F10001F910F9108951895FB01DC0104C08D910C
:107F20000190801921F441505040C8F7881B990BEB
:107F30000895FB01DC0102C001900D9241505040B8
:107F4000D8F70895DC01CB01FC01F999FECF06C0FA
:107F5000F2BDE1BDF89A319600B40D924150504007
:107F6000B8F70895DC01CB0102C02D9105D0415036
:107F70005040D8F70895262FF999FECF1FBA92BD29
:107F800081BD20BD0FB6F894FA9AF99A0FBE0196FA
:027F9000089552
:040000030000780081
:00000001FF
