:1000000000100010CB000000C1000000C300000081
:1000100000000000000000000000000000000000E0
:1000200000000000000000000000000000000000D0
:100030000000000000000000C50000000D010000ED
:10004000C9000000C900000000000000F507000022
:10005000C9000000C900000000000000000000000E
:10006000C9000000C9000000C9000000C90000006C
:10007000C9000000C900000000000000C900000025
:100080000000000000000000000000000000000070
:100090000000000000000000000000000000000060
:1000A000C9000000C9000000C9000000C90000002C
:1000B000C9000000C9000000C9000000C90000001C
:1000C000FEE7FEE7FEE7FEE7FEE70023094A0A49EE
:1000D0009A188A4204D20949C95804331160F5E7D5
:1000E000074B084A934202D2002204C3F9E700F00A
:1000F00015F8FEE78002001080020010380C0000A6
:100100008002001018040010FEE7C046024B1A6877
:1001100001321A607047C04680020010F8B5564B95
:100120005649DA6F0C200A43DA67554BE022520039
:10013000995801439950534AE1201A60524A4002AB
:10014000DA60524A1A6100F0DDFA514B514AC0217F
:100150005A60514A0906106A504D0002000A0143D4
:10016000116200229A6007221A6029682A684C4BA3
:10017000521A9A42FAD94B4800F092FCA0238021EF
:100180001B0689015858484A104358508821890154
:100190005A5000F0D1F8011C444800F081FC44485A
:1001A00000F0EAF84348642100F004F94248642171
:1001B00000F000F94148C82100F0FCF864214048F3
:1001C00000F0F8F800F026F93E4800F0D5F83E4C73
:1001D000201C00F00BF9201C00F008F9201C00F096
:1001E00005F900F017F92A682B689B1A132BFBD925
:1001F0001F200221052200F065F9344F2C682B687E
:100200001A1BBA420DD33C199C4200D21C1C8021FF
:100210008C23A0229B0149021206D150FA239B0095
:10022000DF1B00F0CBFA002802DBC0B200F0AEFA10
:1002300000F0D0F90028E2D0254B1E88002EDED138
:10024000A0231B065E74234B2348597800F028FC3A
:10025000204B9A78964207DA03339B1919781F4886
:1002600000F01EFC0136F3E71D4800F019FCA02346
:1002700001221B065A74C2E7048004408000040077
:1002800000C000400400FFFFFFFFFF0C0E0F0DFF3A
:1002900010E000E0DF2E000000ED00E08002001022
:1002A000F3010000700B0000800003007B0B0000D6
:1002B00034120000880B00008A0B00008C0B000039
:1002C0008E0B000021430000900B0000E7030000AC
:1002D00014040010CC030010CC0B0000CE0B000067
:1002E000860B000030B507230021051C01241D41A9
:1002F000A0221206254095710025D571D471D278BF
:100300009A401143013BF0D2081C30BD38B5C311EF
:10031000041C07480A1C058899B28D4201D1013599
:1003200005809BB2211C034800F0BAFB38BDC046D3
:1003300084020010D20B0000F8B5A0242406012688
:100340008023A6709B01E258C4210A430025E25095
:100350009F20E671A570FFF7C5FF281CFFF7C2FFBD
:100360000704281CFFF7BEFF00020743281CFFF705
:10037000B9FF3843A670F8BD002201320A4B1D2A8E
:1003800003D09B180021D977F7E7084A58621A6210
:10039000012252425A85064A12881A85DA6B0132C6
:1003A000DA635A637047C04604030010E7802F01E8
:1003B0008402001070B50C1C002C14DD0A4E7F2343
:1003C000308D326BC001801803408022D31A251E65
:1003D0009D4200DD1D1C291CFFF798FF326B641B3A
:1003E000AB183363E8E770BD0403001008B5031CC5
:1003F0001A78191A1F2A01D90133F9E7092AFBD003
:10040000FFF7D8FF02480121FFF7D4FF08BDC0461F
:10041000860B000008B5074B1C211A6B188D1C3287
:10042000C0011018C01180B2C0016430FFF76EFF28
:1004300008BDC04604030010F1231B051843044BFC
:1004400098619A68D107FCD5014B586980B2704712
:100450000080054008B5A0208001FFF7EDFF502384
:10046000184203D00020FFF7E7FFF4E708BD10B5FE
:10047000041C80204000FFF7DFFF1C239843044347
:1004800081231B02E0B21843FFF7D6FF10BD000026
:1004900030B50F22041C0A4B14406400E45A0009D2
:1004A0004440081C10404000C55A09096C402240D5
:1004B00049005200D25ACB5A20095840504030BD12
:1004C000E20B0000F8B5171C364A0D1C36491070B7
:1004D0005770CC6F061C80200001344B2043C86746
:1004E0005868012188435860586808435860304B69
:1004F00002205862002058600420186018680143E8
:1005000019602C48FFF798FFBC208001FFF794FF8B
:10051000C0B2AA28F5D12848FFF78EFFBC20800181
:10052000FFF78AFFC0B25528F5D1244C2034237838
:10053000002B08D080206278034318021043023455
:10054000FFF77AFFF3E7B02000023843FFF774FFAC
:10055000022D03D0032D03D1194B02E0194B00E00B
:10056000194B1A481A4945435B19980000F0B0FA34
:100570008401201487231B02C0B21843FFF75CFFDD
:10058000201288231B02C0B21843FFF755FF8920B1
:10059000E4B200022043FFF74FFF024A0423301C5D
:1005A0009370F8BD440300100480044000800440B0
:1005B00000800540AAAF000055AF0000E20B00002C
:1005C00000E9A435008F42338047A11900093D009E
:1005D000093D000070B5474CA378251C042B0FD1B2
:1005E000454B0025617845489D70E570FFF750FF49
:1005F000434B18800523A370FFF72CFF10205EE00B
:10060000A0208001FFF718FFA378052B39D15023D4
:1006100018426DD00020FFF70FFFE378C1B2364CCF
:10062000002B05D1EB786A78E2540133DBB2EB7032
:10063000EB78334EE1540133DBB2EB703088FFF7D7
:1006400027FF3080A278EB7804329A4202DBEB7805
:10065000462B4DD90420A870FFF709FFA378422B41
:1006600001D901233380637801205A0641D52B78C4
:100670001F2B3ED060781F221040C01A43425841C1
:1006800037E0030634D4A3785BB2002B10DA1A4BA0
:100690001B4D9978A2780331501CC0B28A18A07003
:1006A000D2B29C5C2888211CFFF7F2FE28801AE059
:1006B000A378032B06D102071AD50420A070FFF7F8
:1006C000D6FE15E0A3785A1CD2B25BB2A270002B02
:1006D00006D0AA24012B06D1094B1C88240A02E06B
:1006E000074B1C88E4B2802000022043FFF7A4FEE1
:1006F000002070BD44030010CC030010FFFF000079
:1007000014040010F7B51D4C0122231C94331A6009
:10071000231DD96F8022D2010A43DA676368082655
:10072000B34363606368164D3343071C636004235F
:100730002B60391C134800F0CBF9231CF033FF2247
:10074000013828621A601868296A1B680130019311
:100750000C4B01317943584300F0BAF9019AF43453
:10076000D343C01882231B012060AB60064B0122DB
:100770001E602B6813432B60F7BDC0460080044009
:1007800000400640B0710B0000E100E010B5094BDD
:100790003F221C785978013414408C42F7D01978E4
:1007A0005C1801310A401A70034B0422A070DA6011
:1007B00010BDC046480300100040064010B50B4A6B
:1007C000012313610A4B111C42331C785878844270
:1007D00007D05A783F2498180132224080785A7006
:1007E00001E0012040420123CB6010BD00400640E3
:1007F00048030010104A30B59068C30709D50F4B65
:100800005569423319785C18A57001313F242140A5
:100810001970042108420ED0084B1C785878844285
:1008200001D1116107E059783F24581880780131CF
:1008300021405970D06130BD00400640480300108F
:1008400008B5002805D003681970026801320260FB
:1008500002E0081C00F031F908BDF7B5141C009047
:100860000191002A11DD0A1C0199501A1178002902
:1008700001D00132F8E7A04201DA241A00E00C1C92
:1008800020279A0702D5302700E020270025D90726
:100890000CD4251C002D05DD0098391CFFF7D0FF76
:1008A000013DF7E7E543ED172540641B2E1C019A37
:1008B000531B995D002904D00098FFF7C1FF013652
:1008C000F5E7251C002D05DD0098391CFFF7B8FF62
:1008D000013DF7E7E043C01704403019FEBDF0B515
:1008E00087B0071C00920C1E09D103AB30221A708E
:1008F00059700C9A191C0D9BFFF7AFFF42E00022C4
:100900000192934207D0009B0A2B04D1914202DA54
:1009100001224C42019200226B466E46DA75163671
:10092000751C002C11D0201C009900F015F9092924
:1009300002DD0E9B3A3BC91830313170201C009902
:1009400000F0C6F8013E041CEAE7019B002B12D020
:100950000C9A002A0BD00D9B9B0708D5381C2D2123
:10096000FFF76EFF0C9A0124013A0C9203E0013D5F
:100970002D232B700024381C291C0C9A0D9BFFF78B
:100980006CFF201807B0F0BDF0B589B0061C0D1C37
:10099000059200242B78002B05D0252B73D1697884
:1009A0006A1C002905D1002E74D0336800221A7009
:1009B00070E0252966D000232D2901D1AA1C01232E
:1009C000151C2A78302A03D1022201351343F8E797
:1009D00000222978081C3038C7B2092F04D80A2110
:1009E0004A4301351218F4E7732907D10599081D08
:1009F00009680590002941D128493FE064290ED1BA
:100A00000599081D096801936123059000920293DE
:100A1000301C0A220123FFF762FF241838E07829EE
:100A200007D10599081D059009680193009261237B
:100A300008E058290AD10599081D05900968019315
:100A4000009241230293301C10220BE075290BD138
:100A50000599081D0968019361230590009202938E
:100A6000301C0A220023D6E7632911D10598011D05
:100A70000068059107A9087000204870301CFFF736
:100A8000ECFECAE7151C2978301CFFF7D9FE0134AB
:100A900001357FE7201C09B0F0BDC0462E0C0000D8
:100AA0000FB407B504AA08CA0020191C0192FFF769
:100AB0006BFF03B008BC04B0184710B5041E0A2C25
:100AC00002D10D20FFF762FE201CFFF75FFE10BD74
:100AD000002934D00123002210B488422CD30124F1
:100AE0002407A14204D2814202D209011B01F8E786
:100AF000E400A14204D2814202D249005B00F8E73F
:100B0000884201D3401A1A434C08A04202D3001B6A
:100B10005C0822438C08A04202D3001B9C0822439D
:100B2000CC08A04202D3001BDC082243002803D0DB
:100B30001B0901D00909E3E7101C10BC704700280D
:100B400001D00020C04307B4024802A1401802901F
:100B500003BDC046190000000029F0D003B5FFF71F
:100B6000B9FF0EBC4243891A1847C0467047C046B9
:100B70000A5B7365727665725D0A0064664964207B
:100B80003078253034580A00310032003300340008
:100B90003132333435363738392031323334353623
:100BA000373839203132333435363738392031321D
:100BB00033343536373839203132333435363738F7
:100BC0003920313233343536373839004F4B202510
:100BD0006400772025642023256420402025750AA1
:100BE0000000000001CC01D8001401F0003C0028F6
:100BF00001E401A0006C007801B40050019C018860
:100C00000044010402000302048A050506C307D953
:100C1000080009000B201942254029DC2E882F2DC1
:100C20003005370038003C8F3D106F200000286EE3
:080C3000756C6C290000000046
:04000003000000CB2E
:00000001FF
