:1000000000100010CB000000C1000000C300000081
:1000100000000000000000000000000000000000E0
:1000200000000000000000000000000000000000D0
:100030000000000000000000C50000000D010000ED
:10004000C9000000C90000000000000029070000EE
:10005000C9000000C900000000000000000000000E
:10006000C9000000C9000000C9000000C90000006C
:10007000C9000000C900000000000000C900000025
:100080000000000000000000000000000000000070
:100090000000000000000000000000000000000060
:1000A000C9000000C9000000C9000000C90000002C
:1000B000C9000000C9000000C9000000C90000001C
:1000C000FEE7FEE7FEE7FEE7FEE70023094A0A49EE
:1000D0009A188A4204D20949C95804331160F5E7D5
:1000E000074B084A934202D2002204C3F9E700F00A
:1000F00015F8FEE78002001080020010280B0000B7
:1001000080020010C8030010FEE7C046024B1A68C8
:1001100001321A607047C04680020010624BF7B58A
:10012000DA6F62490C200A43DA67614BE022520021
:100130009958014399505F4AE1201A605E4A400293
:10014000DA605E4A1A6100F077FA5D4B5D4AC021C1
:100150005A605D4A0906106A5C4C0002000A0143BD
:10016000116200229A6007221A6021682268584BA7
:10017000521A9A42FAD9574800F02CFCA023802149
:100180001B0689015858544A104358508821890148
:100190005A5000F0CBF8011C504800F01BFC2268BC
:1001A00023689B1A132BFBD91F200221052200F084
:1001B00023F94B4F266823689A1BBA420DD3BE1908
:1001C0009E4200D21E1C80218C23A0229B0149024A
:1001D0001206D150FA239B00DF1B00F089FA237925
:1001E000051C002B03D00023A36023732371002D73
:1001F00027DBE9B2081C019100F062FA2B1C303BAE
:10020000092B06D8A2680A2353435D19303DA56027
:1002100017E02B1C613B192B06D80A2000F050FA7E
:100220006B461B7923710CE02C2D0AD1237B632BA9
:1002300005D8221CA1680D32D15401332373002349
:10024000A3602379642B05D06C2B05D0002B06D03E
:10025000244802E0244800E0244800F0BBFB00F002
:1002600053F90028A7D0224B1D88002DA3D1A0232D
:100270001B065D741F4B2048597800F0ABFB1D4BEB
:100280009A78954207DA03335B1919781B4800F016
:10029000A1FB0135F3E71A4800F09CFBA0230122E3
:1002A0001B065A7487E7C04604800440800004009F
:1002B00000C000400400FFFFFFFFFF0C0E0F0DFF0A
:1002C00010E000E0DF2E000000ED00E080020010F2
:1002D000F3010000A40A000080000300AF0A000040
:1002E000E7030000C80A0000BC0A0000C20A0000C0
:1002F000C40300107C030010CB0A0000CD0A0000EC
:10030000C90A000030B507230021051C01241D4146
:10031000A0221206254095710025D571D471D2789E
:100320009A401143013BF0D2081C30BDF8B5A0241F
:10033000240601268023A6709B01E258C4210A43AB
:100340000025E2509F20E671A570FFF7DBFF281C17
:10035000FFF7D8FF0704281CFFF7D4FF000207436C
:10036000281CFFF7CFFF3843A670F8BDF1231B050B
:100370001843044B98619A68D107FCD5014B586922
:1003800080B270470080054008B5A0208001FFF7CB
:10039000EDFF5023184203D00020FFF7E7FFF4E7FA
:1003A00008BD10B5041C80204000FFF7DFFF1C23B0
:1003B0009843044381231B02E0B21843FFF7D6FFA2
:1003C00010BD000030B50F22041C0A4B144064001D
:1003D000E45A00094440081C10404000C55A09096D
:1003E0006C40224049005200D25ACB5A2009584052
:1003F000504030BDD20A0000F8B5171C364A0D1C1B
:10040000364910705770CC6F061C80200001344BA9
:100410002043C867586801218843586058680843DA
:100420005860304B02205862002058600420186049
:100430001868014319602C48FFF798FFBC20800121
:10044000FFF794FFC0B2AA28F5D12848FFF78EFF26
:10045000BC208001FFF78AFFC0B25528F5D1244C9B
:1004600020342378002B08D08020627803431802C0
:1004700010430234FFF77AFFF3E7B020000238435D
:10048000FFF774FF022D03D0032D03D1194B02E0B7
:10049000194B00E0194B1A481A4945435B1998005B
:1004A00000F0B0FA8401201487231B02C0B2184365
:1004B000FFF75CFF201288231B02C0B21843FFF72E
:1004C00055FF8920E4B200022043FFF74FFF024AA4
:1004D0000423301C9370F8BDF40200100480044023
:1004E0000080044000800540AAAF000055AF000026
:1004F000D20A000000E9A435008F42338047A119D9
:1005000000093D00093D000070B5474CA378251C4B
:10051000042B0FD1454B0025617845489D70E5704F
:10052000FFF750FF434B18800523A370FFF72CFF04
:1005300010205EE0A0208001FFF718FFA378052BB4
:1005400039D1502318426DD00020FFF70FFFE37818
:10055000C1B2364C002B05D1EB786A78E2540133F6
:10056000DBB2EB70EB78334EE1540133DBB2EB706E
:100570003088FFF727FF3080A278EB7804329A4268
:1005800002DBEB78462B4DD90420A870FFF709FF5A
:10059000A378422B01D901233380637801205A06C6
:1005A00041D52B781F2B3ED060781F221040C01AF7
:1005B0004342584137E0030634D4A3785BB2002BA2
:1005C00010DA1A4B1B4D9978A2780331501CC0B237
:1005D0008A18A070D2B29C5C2888211CFFF7F2FE1A
:1005E00028801AE0A378032B06D102071AD504202D
:1005F000A070FFF7D6FE15E0A3785A1CD2B25BB20A
:10060000A270002B06D0AA24012B06D1094B1C880E
:10061000240A02E0074B1C88E4B280200002204339
:10062000FFF7A4FE002070BDF40200107C03001050
:10063000FFFF0000C4030010F7B51D4C0122231C6E
:1006400094331A60231DD96F8022D2010A43DA67DE
:1006500063680826B34363606368164D3343071C21
:10066000636004232B60391C134800F0CBF9231C72
:10067000F033FF22013828621A601868296A1B6863
:10068000013001930C4B01317943584300F0BAF922
:10069000019AF434D343C01882231B012060AB605D
:1006A000064B01221E602B6813432B60F7BDC0462A
:1006B0000080044000400640B0710B0000E100E003
:1006C00010B5094B3F221C785978013414408C42F4
:1006D000F7D019785C1801310A401A70034B0422D4
:1006E000A070DA6010BDC046F8020010004006405D
:1006F00010B50B4A012313610A4B111C42331C78BD
:100700005878844207D05A783F2498180132224002
:1007100080785A7001E0012040420123CB6010BD77
:1007200000400640F8020010104A30B59068C30738
:1007300009D50F4B5569423319785C18A570013102
:100740003F2421401970042108420ED0084B1C7828
:100750005878844201D1116107E059783F24581834
:100760008078013121405970D06130BD0040064091
:10077000F802001008B5002805D003681970026857
:100780000132026002E0081C00F031F908BDF7B543
:10079000141C00900191002A11DD0A1C0199501AC5
:1007A0001178002901D00132F8E7A04201DA241AB9
:1007B00000E00C1C20279A0702D5302700E02027F4
:1007C0000025D9070CD4251C002D05DD0098391C07
:1007D000FFF7D0FF013DF7E7E543ED172540641B28
:1007E0002E1C019A531B995D002904D00098FFF735
:1007F000C1FF0136F5E7251C002D05DD0098391CE9
:10080000FFF7B8FF013DF7E7E043C0170440301998
:10081000FEBDF0B587B0071C00920C1E09D103ABDA
:1008200030221A7059700C9A191C0D9BFFF7AFFFFC
:1008300042E000220192934207D0009B0A2B04D190
:10084000914202DA01224C42019200226B466E462E
:10085000DA751636751C002C11D0201C009900F09A
:1008600015F9092902DD0E9B3A3BC9183031317068
:10087000201C009900F0C6F8013E041CEAE7019B29
:10088000002B12D00C9A002A0BD00D9B9B0708D589
:10089000381C2D21FFF76EFF0C9A0124013A0C92AF
:1008A00003E0013D2D232B700024381C291C0C9AD9
:1008B0000D9BFFF76CFF201807B0F0BDF0B589B0B5
:1008C000061C0D1C059200242B78002B05D0252B2F
:1008D00073D169786A1C002905D1002E74D0336861
:1008E00000221A7070E0252966D000232D2901D13D
:1008F000AA1C0123151C2A78302A03D102220135B3
:100900001343F8E700222978081C3038C7B2092FB2
:1009100004D80A214A4301351218F4E7732907D194
:100920000599081D09680590002941D128493FE033
:1009300064290ED10599081D09680193612305906A
:1009400000920293301C0A220123FFF762FF241851
:1009500038E0782907D10599081D059009680193A9
:100960000092612308E058290AD10599081D0590D5
:1009700009680193009241230293301C10220BE07E
:1009800075290BD10599081D09680193612305900C
:1009900000920293301C0A220023D6E7632911D16A
:1009A0000598011D0068059107A90870002048708E
:1009B000301CFFF7ECFECAE7151C2978301CFFF746
:1009C000D9FE013401357FE7201C09B0F0BDC046D7
:1009D0001E0B00000FB407B504AA08CA0020191C9A
:1009E0000192FFF76BFF03B008BC04B0184710B5C5
:1009F000041E0A2C02D10D20FFF762FE201CFFF717
:100A00005FFE10BD002934D00123002210B48842BB
:100A10002CD301242407A14204D2814202D209012D
:100A20001B01F8E7E400A14204D2814202D249004E
:100A30005B00F8E7884201D3401A1A434C08A042F1
:100A400002D3001B5C0822438C08A04202D3001B87
:100A50009C082243CC08A04202D3001BDC0822439E
:100A6000002803D01B0901D00909E3E7101C10BCC2
:100A70007047002801D00020C04307B4024802A1FB
:100A80004018029003BDC046190000000029F0D0B4
:100A900003B5FFF7B9FF0EBC4243891A1847C04699
:100AA0007047C0460A5B7365727665725D0A0064C2
:100AB000664964203078253034580A0044554D503A
:100AC0000A004C4953540A003F0A004F4B2025644A
:100AD0000000000001CC01D8001401F0003C002807
:100AE00001E401A0006C007801B40050019C018871
:100AF0000044010402000302048A050506C307D965
:100B0000080009000B201942254029DC2E882F2DD2
:100B10003005370038003C8F3D106F200000286EF4
:080B2000756C6C290000000057
:04000003000000CB2E
:00000001FF
