:1000000000100010CB000000C1000000C300000081
:1000100000000000000000000000000000000000E0
:1000200000000000000000000000000000000000D0
:100030000000000000000000C50000000D010000ED
:10004000C9000000C900000000000000C900000055
:10005000C9000000C900000000000000000000000E
:10006000C9000000C9000000C9000000C90000006C
:10007000C9000000C900000000000000C900000025
:100080000000000000000000000000000000000070
:100090000000000000000000000000000000000060
:1000A000C9000000C9000000C9000000C90000002C
:1000B000C9000000C9000000C9000000C90000001C
:1000C000FEE7FEE7FEE7FEE7FEE70023094A0A49EE
:1000D0009A188A4204D20949C95804331160F5E7D5
:1000E000074B084A934202D2002204C3F9E700F00A
:1000F00015F8FEE78002001080020010E8090000F9
:1001000080020010D4020010FEE7C046024B1A68BD
:1001100001321A607047C04680020010F8B53D4BAE
:100120003D49DA6F0C200A43DA673C4BE02252006B
:1001300099583B4D014399503A4AE1201A603A4A96
:100140000002DA60394A1A6100F036FA384800F0E5
:10015000A9FB384B384AC0215A60384A0906106A50
:100160000002000A0143116200229A6007221A600D
:100170008021A0231B0689015858314A104358504A
:10018000882189015A5000F08CF8011C2D4800F09C
:1001900089FB1F200221052200F0EEF82A4F3E685D
:1001A0003B689A1BAA420AD380208C22A02192018C
:1001B000400209068850FA229200551B1E1C00F0CE
:1001C00063F90028ECD0214B1C88002CE8D1802159
:1001D0008A23A02289029B011206D1501C4B1D4884
:1001E000597800F05FFB1A4B9A78944207DA033390
:1001F0001B191978184800F055FB0134F3E717482C
:1002000000F050FB80218823A02289029B01120666
:10021000D150C5E7048004408000040000C00040C5
:10022000E70300000400FFFFFFFFFF0C0E0F0DFFB0
:100230007409000010E000E0DF2E000000ED00E097
:10024000800003007F09000080020010D00200102F
:10025000880200108C0900008E0900008A09000045
:1002600070B5011C08220020A0238A251B0640240B
:10027000AD010E0603D58826B6019C5100E05C5105
:1002800080245C518825AD015C518424A4011B5954
:1002900040001B07DB0F013A49001843002AE3D155
:1002A00070BDF8B5A02488252406AD01042680235E
:1002B00066519B01E258C4210A43E25080236351F6
:1002C0008A239B01E6509F20FFF7CAFF0020FFF71B
:1002D000C7FF07040020FFF7C3FF00020743002009
:1002E000FFF7BEFF66513843F8BD0000F1231B0540
:1002F0001843044B98619A68D107FCD5014B5869A3
:1003000080B270470080054008B5A0208001FFF74B
:10031000EDFF5023184203D00020FFF7E7FFF4E77A
:1003200008BD10B5041C80204000FFF7DFFF1C2330
:100330009843044381231B02E0B21843FFF7D6FF22
:1003400010BD000030B50F22041C0A4B144064009D
:10035000E45A00094440081C10404000C55A0909ED
:100360006C40224049005200D25ACB5A20095840D2
:10037000504030BD92090000F8B5171C364A0D1CDC
:10038000364910705770CC6F061C80200001344B2A
:100390002043C8675868012188435860586808435B
:1003A0005860304B032058620020586004201860C9
:1003B0001868014319602C48FFF798FFBC208001A2
:1003C000FFF794FFC0B2AA28F5D12848FFF78EFFA7
:1003D000BC208001FFF78AFFC0B25528F5D1244C1C
:1003E00020342378002B08D0802062780343180241
:1003F00010430234FFF77AFFF3E7B02000023843DE
:10040000FFF774FF022D03D0032D03D1194B02E037
:10041000194B00E0194B1A481A4945435B199800DB
:1004200000F058FA8401201487231B02C0B218433D
:10043000FFF75CFF201288231B02C0B21843FFF7AE
:1004400055FF8920E4B200022043FFF74FFF024A24
:100450000423301C9370F8BD840200100480044013
:100460000080044000800540AAAF000055AF0000A6
:100470009209000000E9A435008F42338047A1199A
:1004800000093D00093D000070B5474CA378251CCC
:10049000042B0FD1454B0025617845489D70E570D0
:1004A000FFF750FF434B18800523A370FFF72CFF85
:1004B00010205EE0A0208001FFF718FFA378052B35
:1004C00039D1502318426DD00020FFF70FFFE37899
:1004D000C1B2364C002B05D1EB786A78E254013377
:1004E000DBB2EB70EB78334EE1540133DBB2EB70EF
:1004F0003088FFF727FF3080A278EB7804329A42E9
:1005000002DBEB78462B4DD90420A870FFF709FFDA
:10051000A378422B01D901233380637801205A0646
:1005200041D52B781F2B3ED060781F221040C01A77
:100530004342584137E0030634D4A3785BB2002B22
:1005400010DA1A4B1B4D9978A2780331501CC0B2B7
:100550008A18A070D2B29C5C2888211CFFF7F2FE9A
:1005600028801AE0A378032B06D102071AD50420AD
:10057000A070FFF7D6FE15E0A3785A1CD2B25BB28A
:10058000A270002B06D0AA24012B06D1094B1C888F
:10059000240A02E0074B1C88E4B2802000022043BA
:1005A000FFF7A4FE002070BD840200108802001036
:1005B000FFFF0000D0020010F7B51B4C0126231CE2
:1005C00094331E60231DD96F8022D2010A43DA675B
:1005D000626808239A4362606268144D1343071CE3
:1005E000636004232B60391C114800F073F9231C4D
:1005F000F033FF22013828621A601868296A1B68E4
:10060000801901930A4B89197943584300F062F924
:10061000019AF434D343C01882231B012060AB60DD
:100620002B681E432E60F7BD00800440004006404A
:10063000B0710B00024B9A685107FBD5D861704727
:100640000040064008B5002805D00368197002680C
:100650000132026002E0081C00F031F908BDF7B574
:10066000141C00900191002A11DD0A1C0199501AF6
:100670001178002901D00132F8E7A04201DA241AEA
:1006800000E00C1C20279A0702D5302700E0202725
:100690000025D9070CD4251C002D05DD0098391C38
:1006A000FFF7D0FF013DF7E7E543ED172540641B59
:1006B0002E1C019A531B995D002904D00098FFF766
:1006C000C1FF0136F5E7251C002D05DD0098391C1A
:1006D000FFF7B8FF013DF7E7E043C01704403019CA
:1006E000FEBDF0B587B0071C00920C1E09D103AB0C
:1006F00030221A7059700C9A191C0D9BFFF7AFFF2E
:1007000042E000220192934207D0009B0A2B04D1C1
:10071000914202DA01224C42019200226B466E465F
:10072000DA751636751C002C11D0201C009900F0CB
:1007300015F9092902DD0E9B3A3BC9183031317099
:10074000201C009900F0C6F8013E041CEAE7019B5A
:10075000002B12D00C9A002A0BD00D9B9B0708D5BA
:10076000381C2D21FFF76EFF0C9A0124013A0C92E0
:1007700003E0013D2D232B700024381C291C0C9A0A
:100780000D9BFFF76CFF201807B0F0BDF0B589B0E6
:10079000061C0D1C059200242B78002B05D0252B60
:1007A00073D169786A1C002905D1002E74D0336892
:1007B00000221A7070E0252966D000232D2901D16E
:1007C000AA1C0123151C2A78302A03D102220135E4
:1007D0001343F8E700222978081C3038C7B2092FE4
:1007E00004D80A214A4301351218F4E7732907D1C6
:1007F0000599081D09680590002941D128493FE065
:1008000064290ED10599081D09680193612305909B
:1008100000920293301C0A220123FFF762FF241882
:1008200038E0782907D10599081D059009680193DA
:100830000092612308E058290AD10599081D059006
:1008400009680193009241230293301C10220BE0AF
:1008500075290BD10599081D09680193612305903D
:1008600000920293301C0A220023D6E7632911D19B
:100870000598011D0068059107A9087000204870BF
:10088000301CFFF7ECFECAE7151C2978301CFFF777
:10089000D9FE013401357FE7201C09B0F0BDC04608
:1008A000DE0900000FB407B504AA08CA0020191C0D
:1008B0000192FFF76BFF03B008BC04B0184710B5F6
:1008C000041E0A2C02D10D20FFF7B4FE201CFFF7F6
:1008D000B1FE10BD002934D00123002210B488429B
:1008E0002CD301242407A14204D2814202D209015F
:1008F0001B01F8E7E400A14204D2814202D2490080
:100900005B00F8E7884201D3401A1A434C08A04222
:1009100002D3001B5C0822438C08A04202D3001BB8
:100920009C082243CC08A04202D3001BDC082243CF
:10093000002803D01B0901D00909E3E7101C10BCF3
:100940007047002801D00020C04307B4024802A12C
:100950004018029003BDC046190000000029F0D0E5
:1009600003B5FFF7B9FF0EBC4243891A1847C046CA
:100970007047C0460A5B7365727665725D0A0064F3
:10098000664964203078253034580A004F4B2025C2
:100990006400000001CC01D8001401F0003C0028E4
:1009A00001E401A0006C007801B40050019C0188B2
:1009B0000044010402000302048A050506C307D9A6
:1009C000080009000B201942254029DC2E882F2D14
:1009D0003005370038003C8F3D106F200000286E36
:0809E000756C6C290000000099
:04000003000000CB2E
:00000001FF
